:100000000C94B6040C94B1080C948A080C94D8088B
:100010000C94D8080C94D8080C94DE040C94DE04DC
:100020000C94DE040C94DE040C94DE040C94DE04C8
:100030000C94DE040C94DE040C94DE040C94DE04B8
:100040000C9440080C94DE040C941C070C94F606E7
:100050000C94DE040C94DE040C94DE040C94DE0498
:100060000C9468090C94DE04084AD73B3BCE016E21
:1000700084BCBFFDC12F3D6C74319ABD56833DDAFF
:100080003D00C77F11BED9E4BB4C3E916BAAAABE0E
:10009000000000803F0001B202FFFF01900409232D
:1000A000A135016A0206000160080000000000009E
:1000B00000000060044000000001620200000060D7
:1000C0000400400000037B034CCD6C03AB033656A9
:1000D0007600680402CB47A202180400058BC10118
:1000E0000C0400000000037F060CC92C97979703AF
:1000F0008903264666006C022000024004000000CE
:100100000002440400000000024804000000000255
:100110004C040000000002500400000000025404DF
:100120000000000002580400000000025C0400000F
:10013000000002BC040000000001EC0400004000CC
:10014000037F060CC92C9797970402030D355D04B5
:100150000904872D353D00A301000000000107863A
:1001600001FE074105F120283038077E013007469F
:10017000019A074704F1283038076C04F128303819
:100180000216020001FB00003E000B0036000100D9
:10019000020003000000650054FFEF0000FA800039
:1001A0000B128200010002000000000000000000AD
:1001B000000000000000280000FFFF4581FFFFFA5B
:1001C0007200000000000003E80000000100017F51
:1001D000FFFFFE8001001B00000000000000000087
:1001E0000000000000003E03304000000002CAE3AF
:1001F000093E8000002000000000000000400000D8
:10020000006000000041FF000000000B2A00001603
:100210005500002182FD872650FD800000001F0050
:100220000000058000000000000001000000020046
:100230000000030000400000000000046F000265A1
:100240003200005EC040000000000000000000001E
:100250000000000000FB8C6F5DFD5D08D9007C7321
:100260003B006C12CC3200139D3200D0D632000815
:1002700000400001F4FFE68079020000000000D099
:10028000D600002710FB0000004000000000000026
:10029000000000000000000001000000000000015C
:1002A00000010000000000FA36FFBC308E0005FBA4
:1002B000F0FFD95BC8FFD09ABE000010A9FFF41E62
:1002C000B200CEBBF70000000100000004000200F5
:1002D000020200000CFFC280000001800000CF80FD
:1002E00000400000000000000100000000000006C7
:1002F00000000000140000000000000000000000EA
:1003000000000000000000000000000000000000ED
:1003100000000000000000000000000000000000DD
:10032000000000000000000000033F68B679352897
:10033000BCC67ED16C80000000400000000000B20E
:100340006A00000000000000000000000000003F04
:10035000F00000003000000000000000000000007D
:10036000000000000000000000000000000000008D
:1003700000000000000000254D002F706D000005FA
:10038000AE000C02D00000000000650054FFEF003A
:100390000000000000000001000044000000000C0C
:1003A0000000000100000000000065000000540093
:1003B00000FFEF000000000000000000000000004F
:1003C00000000000004000000000000000000000ED
:1003D00000000000004000000000000000000000DD
:1003E000000000000000000001000000020000000A
:1003F00000000000000000000000000000000000FD
:1004000000000000000000000000000000000000EC
:100410000000000000001B000000000000000000C1
:1004200000000000000000000000000000000000CC
:1004300000000000000000000000000000000000BC
:100440000040000000001B00000000000000000051
:10045000000000000000000000000000000000009C
:10046000000000000000000000000000000000008C
:10047000000000000000000000000000000000007C
:100480000000000000D8DCBAA2F1DEB2B8B4A88146
:1004900091F74A907F916AF3F9DBA8F9B0BAA0808E
:1004A000F2CE81F3C2F1C1F2C3F3CCA2B280F1C6A5
:1004B000D880BAA7DFDFDFF2A7C3CBC5B6F087A22B
:1004C000942448703C95406834589B78A2F18392FC
:1004D0002D557DD8B1B4B8A1D09180F270F370F2EF
:1004E0007C80A8F101B09887D943D886C988BAA181
:1004F000F20EB89780F1A9DFDFDFAADFDFDFF2AA13
:10050000C5CDC7A90CC92C97979797F1A9892646FD
:1005100066B0B4BA80ACDEF2CAF1B28C02A9B69869
:1005200000890E161EB8A9B4992C547CB08AA896DE
:10053000365676F1B9AFB4B083C0B8A89711B18F71
:1005400098B9AFF0240844106418F1A329557DAF81
:1005500083B593AFF0002850F1A3869F61A6DADE41
:10056000DFD9FAA38696DB31A6D9F8DFBAA68FC207
:10057000C5C7B28CC1B8A2DFDFDFA3DFDFDFD8D809
:10058000F1B8A8B286B4980D355DB8AA98B0872D99
:10059000353DB2B6BAAF8C96198F9FA70E161EB412
:1005A0009AB8AA872C547CB9A3DEDFDFA3B180F20E
:1005B000C4CDC9F1B8A9B499830D355D89B9A32D0E
:1005C000557DB593A30E161EA92C547CB8B4B0F17A
:1005D0009783A81184A50998A383F0DA240844100E
:1005E0006418D8F1A529557DA58595021A2E3A568D
:1005F0005A4048F9F3A3D9F8F098832408441064CA
:10060000189782A8F111F098A2240844106418DA0F
:10061000F3DED883A59401D9A302F1A2C3C5C7D83C
:10062000F18492A24DDA2AD84869D92AD86855DAD5
:1006300032D85071D932D8705DDA3AD85879D93A6F
:10064000D87893A34DDA2AD84869D92AD86855DAD8
:1006500032D85071D932D8705DDA3AD85879D93A4F
:10066000D878A88A9AF02850789EF38818F19F1DB0
:1006700098A8D908D8C89F129EF315A8DA1210D8E6
:10068000F1AFC8978734B5B994A421F3D922D8F231
:100690002DF3D92AD8F235F3D932D881A46060611C
:1006A000D961D86C6869D969D8747071D971D8B1B9
:1006B000A384193D5DA3831A3E5E9310308110110F
:1006C000B8B0AF8F94F2DA3ED8B49AA88729DAF896
:1006D000D8879A35DAF8D8879A3DDAF8D8B1B9A42C
:1006E0009885022E56A581000C14A397B08AF12D8F
:1006F000D928D84DD948D86DD968D8B1840DDA0E2B
:10070000D8A32983DA2C0ED8A3844983DA2C4C0E83
:10071000D8B8B0A88A9AF520AADADFD8A840AAD01B
:10072000DADED8A860AADAD0DFD8F19786A8319BA4
:10073000069907AB9728889BF00C201440B8B0B4FA
:10074000A88C9CF0042851791D301438B282ABD0AB
:10075000982C505078789BF11AB0F08A9CA82951B7
:10076000798B2951798A2470598B2058718A446970
:10077000388B3940688A6448318B304960A58820BD
:100780000971584468113964493019F1AC002C548E
:100790007CF08CA804285078F1889726A85998AC4A
:1007A0008C02264666F0899CA82951792470594408
:1007B0006938644831A98809205970AB11384069FB
:1007C000A8193148608CA83C415C207C00F18798D6
:1007D0001986A86E767EA999882D557D9EB9A38A23
:1007E000228A6E8A568A5E9FB183062646660E2E40
:1007F0004E6E9DB8AD002C547CF2B18CB499B9A367
:100800002D557D8191AC38AD3AB58391AC2DD92869
:10081000D84DD948D86DD968D88C9DAE29D904AEA9
:10082000D851D904AED879D904D881F39DAD008DC3
:10083000AE1981ADD901D8F2AEDA26D88E912983CE
:10084000A7D9ADADADADF32AD8D8F1B0AC89913E02
:100850005E76F3AC2E2EF1B18C5A9CAC2C28282855
:100860009CAC3018A8988128343C9724A728343CA5
:100870009C24F2B089AC912C4C6C8A9B2DD9D8D891
:1008800051D9D8D879D9D8D8F19E88A331DAD8D817
:10089000912DD928D84DD948D86DD968D8B183932E
:1008A000353D8025DAD8D88569DAD8D8B49381A3C4
:1008B00028343CF3AB8BF8A391B609B4D9ABDEFA7C
:1008C000B0879CB9A3DDF1A3A3A3A395F1A3A3A330
:1008D0009DF1A3A3A3A3F2A3B49080F2A3A3A3A327
:1008E000A3A3A3A3A3A3B2A3A3A3A3A3A3B087B5C6
:1008F00099F1A3A3A398F1A3A3A3A397A3A3A3A34D
:10090000F39BA3A3DCB9A7F1262626D8D8FF0000C5
:100910000000240027002A00000000080002010057
:1009200000030407000000000000000000000000B9
:10093000250028002B0000000000230026002900CD
:100940000404040404040404020202020202030375
:10095000030303030102040810204080010204087D
:100960001020010204081020BA1DB01D11241FBE62
:10097000CFEFD8E0DEBFCDBF11E0A0E0B1E0E6E10F
:10098000FAE402C005900D92A237B107D9F724E02E
:10099000A2E7B1E001C01D92A431B207E1F714E073
:1009A000C5EBD4E004C02197FE010E94021FC43BA6
:1009B000D107C9F70E94F4110C94FE240C94000096
:1009C000CF92DF92EF92FF920F931F93CF93DF931B
:1009D0006C017A018B01C0E0D0E0CE15DF0589F013
:1009E000D8016D918D01D601ED91FC910190F081BE
:1009F000E02DC6010995892B11F47E0102C02196D4
:100A0000ECCFC701DF91CF911F910F91FF90EF9035
:100A1000DF90CF900895833081F028F4813099F0F1
:100A20008230A1F008958730A9F08830B9F0843081
:100A3000D1F4809180008F7D03C0809180008F77FA
:100A400080938000089584B58F7702C084B58F7D30
:100A500084BD08958091B0008F7703C08091B0006D
:100A60008F7D8093B00008953FB7F8948091AC02D9
:100A70009091AD02A091AE02B091AF0226B5A89BB5
:100A800005C02F3F19F00196A11DB11D3FBFBA2F20
:100A9000A92F982F8827820F911DA11DB11DBC0180
:100AA000CD0142E0660F771F881F991F4A95D1F745
:100AB0000895089520917401309175012817390720
:100AC00071F49091720180917301981741F0E09157
:100AD0007201F0E0E959FD4F808190E008958FEFB9
:100AE0009FEF089508951F93CF93DF93DC015C96E9
:100AF0002D913C915D972115310539F481E090E00D
:100B000013969C938E9312973DC05196ED91FC9154
:100B1000529750969C915097892F80951FB75E965B
:100B20004C915E9741FB772770F941FD6095F894F1
:100B30004081772311F0492B01C048234083E9010C
:100B40002197F1F748E0508160FF02C0592B01C0A6
:100B500058235083E9012197F1F76695415099F7A1
:100B6000772321F090818923808303C08081982B93
:100B700090831FBF5C968D919C915D970197F1F7D3
:100B800021E030E0C901DF91CF911F9108952091BC
:100B90007401309175012817390771F48091730140
:100BA0002091720190E0805C9F4F821B910960E46C
:100BB00070E00E94DA1E089580E090E00895209190
:100BC00074013091750128173907B9F490917201B9
:100BD00080917301981789F0E0917201F0E0E95972
:100BE000FD4F80812091720130E02F5F3F4F2F73C6
:100BF00033272093720190E008958FEF9FEF0895BF
:100C000085ED8093BC008091BC0084FDFCCF1092E8
:100C1000E202089540914202262F30E0240F311D58
:100C200021323105DCF42091E2022430C9F4FC01C8
:100C300080E090E0861758F4309142022191DC0167
:100C4000A05EBD4FA30FB11D2C930196F3CF8091F1
:100C50004202680F6093420280E0089581E00895A7
:100C600082E008950895E091770180917601E81778
:100C700030F4F0E0E050FE4F808190E008958FEF77
:100C80009FEF08959091770180917601981750F425
:100C9000E92FF0E0E050FE4F208130E09F5F90931D
:100CA000770102C02FEF3FEFC901089580917601CF
:100CB00090E020917701821B91090895CF92DF92F5
:100CC000EF92FF920F931F93CF93DF937C01262F18
:100CD000972F8A018091E302882391F0C62FD72FA6
:100CE0006E01C40ED51ECC15DD0571F06991D701DA
:100CF000ED91FC910190F081E02DC7010995F3CFB2
:100D0000642F822F0E940A06C801DF91CF911F91A4
:100D10000F91FF90EF90DF90CF900895CF93DF93E6
:100D20001F92CDB7DEB769832091E3022223D1F071
:100D300020910603203240F021E030E0FC013383B3
:100D4000228380E090E015C08091E402E82FF0E07B
:100D5000EB51FD4F998190838F5F8093E4028093E4
:100D6000060305C061E0CE0101960E940A0681E0FB
:100D700090E00F90DF91CF91089581E080938401FE
:100D800008950E94172387E093E00E94330E21E02C
:100D9000892B09F420E0822F08956115710579F0FF
:100DA000FB0101900020E9F73197AF01461B570B7B
:100DB000DC01ED91FC910280F381E02D099480E04B
:100DC00090E008950F931F93CF93DF93EC010E945F
:100DD000CD068C0163E671E0CE010E94CD06800F46
:100DE000911FDF91CF911F910F9108951F920F9244
:100DF0000FB60F9211242F933F934F935F936F93EE
:100E00007F938F939F93AF93BF93EF93FF9387E06D
:100E100093E00E946A11FF91EF91BF91AF919F9172
:100E20008F917F916F915F914F913F912F910F9093
:100E30000FBE0F901F9018951F920F920FB60F9232
:100E400011242F938F939F93EF93FF93E0911703B8
:100E5000F09118038081E0911D03F0911E0382FD43
:100E600012C09081809120038F5F8F7320912103A6
:100E7000821751F0E0912003F0E0E95FFC4F958F7D
:100E80008093200301C08081FF91EF919F918F910A
:100E90002F910F900FBE0F901F901895CF93DF9357
:100EA000282F30E0F901E85EF64F8491F901EC5A01
:100EB000F64FD491F901E05CF64FC491CC2391F048
:100EC00081110E940B05EC2FF0E0EE0FFF1FEA5C92
:100ED000F64FA591B491EC91ED2381E090E021F4DF
:100EE00080E002C080E090E0DF91CF9108951F93F1
:100EF000CF93DF93282F30E0F901E85EF64F84911D
:100F0000F901EC5AF64FD491F901E05CF64FC49127
:100F1000CC23C9F0162F81110E940B05EC2FF0E0B5
:100F2000EE0FFF1FE45DF64FA591B4918FB7F894D3
:100F3000111105C09C91ED2FE095E92302C0EC91C1
:100F4000ED2BEC938FBFDF91CF911F910895CF933D
:100F5000DF9390E0FC01EC5AF64F2491FC01E05C39
:100F6000F64F8491882361F190E0880F991FFC016E
:100F7000E25FF64FC591D491FC01E45DF64FA59177
:100F8000B491611109C09FB7F8948881209582239C
:100F90008883EC912E230BC0623061F49FB7F894E4
:100FA0003881822F809583238883EC912E2B2C937C
:100FB0009FBF06C08FB7F894E8812E2B28838FBF80
:100FC000DF91CF9108958E3008F08E508770806445
:100FD00080937C0080917A00806480937A00809175
:100FE0007A0086FDFCCF809178002091790090E016
:100FF000922B08958F929F92AF92BF92CF92DF92E1
:10100000EF92FF926B017C010E9434054B015C0161
:10101000C114D104E104F104F1F00E943405DC01B3
:10102000CB0188199909AA09BB09883E9340A105FB
:10103000B10570F321E0C21AD108E108F10888EE89
:10104000880E83E0981EA11CB11CC114D104E104D8
:10105000F10419F7DDCFFF90EF90DF90CF90BF90B4
:10106000AF909F908F9008952FB7F8946091A80249
:101070007091A9028091AA029091AB022FBF0895AE
:101080001F920F920FB60F9211242F933F938F93BD
:101090009F93AF93BF938091A8029091A902A091D2
:1010A000AA02B091AB023091A70223E0230F2D37A3
:1010B00020F40196A11DB11D05C026E8230F02965C
:1010C000A11DB11D2093A7028093A8029093A902AD
:1010D000A093AA02B093AB028091AC029091AD02B2
:1010E000A091AE02B091AF020196A11DB11D8093F7
:1010F000AC029093AD02A093AE02B093AF02BF9149
:10110000AF919F918F913F912F910F900FBE0F90B4
:101110001F9018951F920F920FB60F9211242F93C4
:101120003F934F935F936F937F938F939F93AF936F
:10113000BF93EF93FF93E0910201F09103010995B2
:10114000FF91EF91BF91AF919F918F917F916F919F
:101150005F914F913F912F910F900FBE0F901F9075
:1011600018951F920F920FB60F9211242F933F9351
:101170004F935F936F937F938F939F93AF93BF939F
:10118000EF93FF93E0910001F09101010995FF9128
:10119000EF91BF91AF919F918F917F916F915F91EF
:1011A0004F913F912F910F900FBE0F901F90189568
:1011B0001F920F920FB60F9211242F933F934F93CC
:1011C0005F936F937F938F939F93AF93BF93EF93AF
:1011D000FF93E0917401F0917501309709F451C0CB
:1011E000968DA685B785858591FF04C09C9189233E
:1011F00029F447C09C91892309F043C0A389B4898D
:101200009C918589809589238C93868997890197FC
:10121000F1F7608D718DA685B785558538E020E0A2
:10122000CB010197F1F7822F90E095958795282FB4
:101230004C91452309F02068315091F7868D81FD4E
:1012400020958091730190E001968F7399273091DA
:101250007201381749F0A0917301B0E0A959BD4F50
:101260002C938093730103C0868D8160868F828D5D
:10127000938D0197F1F7A389B4899C918589892B76
:101280008C93FF91EF91BF91AF919F918F917F913F
:101290006F915F914F913F912F910F900FBE0F90E3
:1012A0001F901895E0917401F0917501E817F90706
:1012B00069F4A389B4899C918589809589238C934D
:1012C000109275011092740181E0089580E00895F4
:1012D0001F920F920FB60F9211242F933F934F93AB
:1012E0005F936F937F938F939F93AF93BF93EF938E
:1012F000FF938091B900887F803609F49CC068F51F
:10130000883209F45BC090F4803109F454C038F499
:10131000882309F4F6C0883009F44DC0F6C088313E
:1013200009F44CC0803209F45DC0EFC0803409F488
:1013300068C048F4803309F455C0883309F0E5C02B
:101340008093E002D8C0803509F44FC0883509F495
:101350005DC0883409F0D9C0D6C0883909F4C7C047
:10136000A8F4883709F467C038F4883609F463C0F4
:10137000803709F460C0C9C0883809F4B8C0803922
:1013800009F45FC0803809F0C0C05BC0803B09F43D
:1013900086C038F4803A09F466C0883A09F47FC000
:1013A000B4C0803C09F4A7C0883C09F4A4C0883BC1
:1013B00009F48AC0AAC08091BD0210C09091DF02DA
:1013C0008091DE02981770F5E091DF0281E08E0FC8
:1013D0008093DF02F0E0E254FD4F80818093BB00F8
:1013E00085EC86C08093E0028EC0E091DF0281E050
:1013F0008E0F8093DF028091BB00F0E0E254FD4F3E
:1014000080839091DF028091DE026EC0E091DF0266
:1014100081E08E0F8093DF028091BB00F0E0E25408
:10142000FD4F80838091E10281116DC081E0809346
:10143000BC0284EA61C083E08093E20210926602FB
:10144000CFCF80916602803208F051C0E0916602F1
:1014500081E08E0F809366028091BB00F0E0EA5B32
:10146000FD4F8083BDCF85EC8093BC001092E202DB
:1014700080916602803230F4E0916602F0E0EA5B2F
:10148000FD4F10826091660270E0E0914402F0919D
:10149000450286E492E009951092660236C084E027
:1014A0008093E2021092430210924202E0914002C5
:1014B000F0914102099580914202811105C081E0BD
:1014C0008093420210922002E091430281E08E0F4D
:1014D00080934302F0E0E05EFD4F80818093BB008B
:1014E0009091430280914202981708F479CF85E8E1
:1014F0008093BC000AC085EC8093BC001092E2028D
:1015000004C01092E0020E940006FF91EF91BF918B
:10151000AF919F918F917F916F915F914F913F918B
:101520002F910F900FBE0F901F901895EF92FF9282
:101530000F931F93CF93DF9300D0CDB7DEB7142F57
:1015400091E09093E302809305031092E4021092DD
:10155000060384EA93E029833A830E948E06298158
:10156000022FE22E3A81F32E8E2D801B811740F43C
:10157000F70161917F0184EA93E00E948E06F4CF27
:101580000E948C0E91E0811190E0892F0F900F90B6
:10159000DF91CF911F910F91FF90EF9008951F93CE
:1015A000CF93DF9300D0CDB7DEB75A83498391E064
:1015B0009093E302809305031092E40210920603D5
:1015C00084EA93E00E948E0619816A8184EA93E09E
:1015D0000E948E06612F84EA93E00E948E060E948C
:1015E0008C0E91E0811190E0892F0F900F90DF9188
:1015F000CF911F910895CF93DF931F92CDB7DEB7A0
:1016000049839E012F5F3F4F41E00E94960A0F9051
:10161000DF91CF9108952F923F924F925F926F92F8
:101620007F928F929F92AF92BF92CF92DF92EF9272
:10163000FF920F931F93CF93DF93CDB7DEB727971A
:101640000FB6F894DEBF0FBECDBFE82E6B834F837D
:1016500069010E9434084B015C016E2C660CF12C70
:101660001E82772473945F81452F50E05D834C8305
:101670001801412C512C4F81F41608F099C070923A
:10168000E302E09205031092E402109206036B81DC
:1016900084EA93E00E948E060E948C0E7092E30210
:1016A000E09205031092E402109206038091E20298
:1016B0008111FCCF2C813D812F1931092132310557
:1016C00014F020E230E0213208F020E27092E202D1
:1016D0007092E1028FEF8093E0021092DF02820F9E
:1016E0008093DE027092BD028091BD0286298093B4
:1016F000BD028091BC02813071F41092BC028091D5
:10170000BD028093BB008091BC0083FDF8CF95ECB7
:101710009093BC0003C0E5EEE093BC008091E20230
:101720008130E1F38091DF02821710F42091DF0213
:10173000AEEBB2E0E0E0F2E08E2F40E052E0841B3E
:10174000821718F48D918193F7CF1092770120932F
:1017500076019091760180917701981719F1011522
:10176000110599F4A6012E81420F511D27FD5A95AE
:101770005A83498384EA93E00E944206E981FA8110
:1017800080832E812F5F2E83E4CF0E943408DC01FA
:10179000CB0188199909AA09BB0982159305A405EB
:1017A000B50500F38F81813208F080E2F80E63CF37
:1017B000FE8001151105D9F00E943408DC01CB012F
:1017C00088199909AA09BB0920E030E08017910720
:1017D000A207B30760F05F81252F30E08F2D0F2C1B
:1017E000000C990B8217930714F4FF24FA948F2DA1
:1017F00027960FB6F894DEBF0FBECDBFDF91CF9115
:101800001F910F91FF90EF90DF90CF90BF90AF901E
:101810009F908F907F906F905F904F903F902F9010
:101820000895BF92CF92DF92EF92FF920F931F9392
:10183000CF93DF931F92CDB7DEB7F82EE62EC42EDE
:10184000B22ED02E08EE13E09E012F5F3F4F41E0F5
:101850000E940B0B882321F1EC2DF0E0EB19F1092C
:10186000319621E030E002C0220F331FBA94E2F734
:10187000215031090E2E01C0220F0A94EAF78D2D56
:1018800001C0880FEA95EAF7422F409599814923D4
:101890002823422B49836E2D8F2D0E94FB0A01C005
:1018A00080E00F90DF91CF911F910F91FF90EF900B
:1018B000DF90CF90BF900895CF92DF92EF92FF928A
:1018C0000F931F93CF93DF931F92CDB7DEB7F82E00
:1018D000E62ED42EC22E08EE13E09E012F5F3F4F5E
:1018E00041E00E940B0B9981CC2041F041E050E097
:1018F00001C0440FDA94EAF7492B09C021E030E037
:10190000A90101C0440FDA94EAF7409549234983BD
:101910006E2D8F2D0E94FB0A0F90DF91CF911F91AA
:101920000F91FF90EF90DF90CF9008952F923F920C
:101930004F925F926F927F928F929F92AF92BF92DF
:10194000CF92DF92EF92FF920F931F93CF93DF938B
:10195000CDB7DEB768970FB6F894DEBF0FBECDBF28
:10196000412C512C3201198A1A8A1B8A1C8A1D8625
:101970001E861F86188A19861A861B861C861D825B
:101980001E821F82188619821A821B821C82812C59
:10199000912C5401A0E2CA2EA3E0DA2EE12CF12C06
:1019A00008EE13E02FED33E04EE06BE38091DE03B1
:1019B0000E940B0BA091DF03B0E0BA2FAA27809101
:1019C000E003A82BB093FF01A093FE01E091E10397
:1019D000F0E0FE2FEE278091E2031F01282A3092CB
:1019E000FD012092FC012091E30330E0322F2227F9
:1019F0008091E4038901082B1E8B0D8B1093FB0152
:101A00000093FA016091E70370E0762F66278091DA
:101A1000E803682B7093F9016093F8014091E903A2
:101A200050E0542F44278091EA03482B5093F7014C
:101A30004093F6018091EB0390E0982F8827109156
:101A4000EC039C01212B388F2F8B3093F5012093D1
:101A5000F40135E683169104A104B1040CF4AAC084
:101A6000CD01BB0FAA0BBB0B09811A812B813C81D5
:101A7000080F191F2A1F3B1F09831A832B833C83DE
:101A8000C101330CAA0BBB0B0D811E812F81388540
:101A9000080F191F2A1F3B1F0D831E832F833887B2
:101AA0008D899E898C01990F220B330B89859A852C
:101AB000AB85BC85800F911FA21FB31F89879A87B2
:101AC000AB87BC878B01770F220B330B8D859E85EF
:101AD000AF85B889800F911FA21FB31F8D879E8786
:101AE000AF87B88B052E000C660B770B09891A8916
:101AF0002B893C89040F151F261F371F098B1A8B52
:101B00002B8B3C8B2F89388DC901330FAA0BBB0B54
:101B1000480E591E6A1E7B1E34E8831633E0930676
:101B2000A104B10409F046C069817A818B819C814E
:101B3000A70196010E946C243093830120938201B7
:101B40006D817E818F819885A70196010E946C240A
:101B5000309381012093800169857A858B859C85EE
:101B6000A70196010E946C2430937F0120937E018F
:101B70006D857E858F859889A70196010E946C24CA
:101B800030937D0120937C0169897A898B899C89B6
:101B9000A70196010E946C2430937B0120937A0167
:101BA000C301B201A70196010E946C243093790110
:101BB000209378014FEF841A940AA40AB40A62E0D1
:101BC00070E080E090E00E94FA0755E8851653E047
:101BD0009506A104B10409F0E3CE68960FB6F89417
:101BE000DEBF0FBECDBFDF91CF911F910F91FF9050
:101BF000EF90DF90CF90BF90AF909F908F907F90AD
:101C00006F905F904F903F902F900895E091F10377
:101C1000F091F2030190F081E02D682F81EF93E0C5
:101C20000994FC01918D828D981761F0828DDF01FE
:101C3000A80FB11D5D968C91928D9F5F9F73928FBF
:101C400090E008958FEF9FEF0895FC01918D828DB4
:101C5000981731F0828DE80FF11D858D90E0089581
:101C60008FEF9FEF0895FC01918D228D892F90E0D9
:101C7000805C9F4F821B91098F739927089580E0A4
:101C800090E0892B29F00E94C30681110C9400007A
:101C900008958F929F92AF92BF920F931F93CF930D
:101CA000DF93CDB7DEB7A1970FB6F894DEBF0FBEB6
:101CB000CDBF19A2423008F44AE08E010F5D1F4FDC
:101CC000842E912CA12CB12CA50194010E94CD242D
:101CD000E62FB901CA0101501109EA3014F4E05DA0
:101CE00001C0E95CD801EC93232B242B252B61F751
:101CF000B80181EF93E00E94CD06A1960FB6F8944B
:101D0000DEBF0FBECDBFDF91CF911F910F91BF906E
:101D1000AF909F908F9008952091060390910503B6
:101D2000213208F04AC08091E2028111FCCF32E0FA
:101D30003093E20231E03093E1023FEF3093E00272
:101D40001092DF022093DE02A5EEB2E04EEB52E0ED
:101D5000FA013E2F341B321718F43D913193F9CF1D
:101D60001092BD022091BD02990F922B9093BD025B
:101D70009091BC02913061F41092BC029091BD022E
:101D80009093BB009091BC0093FDF8CF95EC01C0FF
:101D900095EE9093BC009091E2029230E1F3909125
:101DA000E0029F3F79F08091E002803241F0809123
:101DB000E002803331F084E005C081E003C082E0BE
:101DC00001C083E01092E402109206031092E30235
:101DD00008950F931F93CF93DF93CEEDD3E008EEDA
:101DE00013E02FED33E041E06AE388810E940B0BA2
:101DF0008981DF91CF911F910F91089521E042E0F9
:101E00006AE68091DE030C945C0C482F6EE68091AC
:101E1000DE030C94FB0A2F923F924F925F926F92D7
:101E20007F928F929F92AF92BF92CF92DF92EF926A
:101E3000FF920F931F93CF93DF933C015B01342EEE
:101E4000D22F202E4F716DE68091DE030E94FB0A97
:101E50008D2F0E94050F80E190E00E9420216C01EF
:101E6000002339F080E190E00E942021C82F492E04
:101E700002C0C0E0412CE12CF12CEA14FB0408F074
:101E80006EC0C7014096A816B90618F45A2C5E1801
:101E900002C080E1582E852D90E020E031E02D1B1E
:101EA00031092817390714F45D2E5194F301EE0D12
:101EB000FF1D222059F09C2FAC2FB42D8A2F891B97
:101EC000851530F484918D933196F8CFCE2F4F2E17
:101ED0002C2F342D452D6FE68091DE030E94960A4B
:101EE000852C912CC114D10429F1432D4F716DE63D
:101EF0008091DE030E94FB0A8D2F0E94050F08EEE1
:101F000013E09601452D6FE68091DE030E940B0BD6
:101F1000A401B6018C2F942D0E941C23892B51F013
:101F2000C6010E94B521222021F18C2F942D0E9400
:101F3000B5211FC0E80CF91CD50DEA14FB0408F00C
:101F40009CCFD11101C03394432D4F716DE6809128
:101F5000DE030E94FB0A8D2F0E94050F8ECFC60163
:101F60000E94B521222039F08C2F942D0E94B5219A
:101F700002C080E001C081E0DF91CF911F910F91FD
:101F8000FF90EF90DF90CF90BF90AF909F908F9099
:101F90007F906F905F904F903F902F9008950F9398
:101FA0001F93662351F0462F9C0108EE13E064E76F
:101FB0008091DE030E940B0B02C0FC0110821F9176
:101FC0000F9108950F931F93CF93DF93CEEDD3E03E
:101FD00008EE13E02FED33E042E062E788810E94D3
:101FE0000B0B898190E0982F88272A81822BDF9123
:101FF000CF911F910F910895EF92FF920F931F932E
:10200000CF93DF931F92CDB7DEB77A0189019E018E
:102010002F5F3F4F41E00E940B0B882339F029814D
:102020002E7730E035952795F70120830F90DF91CB
:10203000CF911F910F91FF90EF9008950F931F93F1
:10204000CF93DF9300EB12E0C0E0D0E0CE010E941E
:102050005624F80181938F012196CC30D105B1F738
:102060008CE090E0DF91CF911F910F910895BC011A
:1020700081EF93E00C94CD06CF92DF92EF92FF9226
:10208000CF93DF936C01990FEE08FF08F7FE17C09E
:102090008DE20E94060EEC0166277727CB016C19B2
:1020A0007D098E099F094AE00E94490E8C0F9D1FF1
:1020B000DF91CF91FF90EF90DF90CF9008954AE0AD
:1020C000C701B601DF91CF91FF90EF90DF90CF90E5
:1020D0000C94490E8F929F92AF92BF92CF92DF9253
:1020E000EF92FF92CF93DF936B017C019B01AC01D8
:1020F0000E940621882319F066E671E027C0460198
:102100005701E894B7F82FEF3FEF4FE75FE7C501BE
:10211000B4010E94062181110DC02FEF3FEF4FE760
:102120005FE7C501B4010E94322318161CF46AE669
:1021300071E00CC02FEF3FEF4FE75FE4C701B6013E
:102140000E94AF20181684F46EE671E081EF93E0F0
:10215000DF91CF91FF90EF90DF90CF90BF90AF9045
:102160009F908F900C94CD062FEF3FEF4FE75FECE1
:10217000C701B6010E94322387FDE6CF20E030E0A0
:10218000A901C701B6010E94322387FF09C08DE271
:102190000E94060EEC01F7FAF094F7F8F09402C0F2
:1021A000C0E0D0E02AE037ED43EA5BE3C701B601C7
:1021B0000E94091F4B015C010E9459206B017C01A8
:1021C0000E9437239B01AC01C501B4010E94081F86
:1021D0004B015C014AE0C701B6010E94490EC80FDD
:1021E000D91F8EE20E94060EC80FD91F20E030E0F2
:1021F00040E251E4C501B4010E9498234B015C0107
:102200000E9459206B01E12CF12C4AE0C701B60174
:102210000E94490EC80FD91FC701B6010E9437237B
:102220009B01AC01C501B4010E94081F20E030E011
:1022300040E251E40E9498230E94592080E090E0FF
:102240004AE00E94490E8C0F9D1FDF91CF91FF90B5
:10225000EF90DF90CF90BF90AF909F908F900895B8
:102260000F931F930E9434086093F9037093FA034D
:102270008093FB039093FC03E091F103F091F20350
:102280000084F185E02D81EF93E0099597FF1FC051
:102290000E9434080091F9031091FA032091FB0386
:1022A0003091FC03DC01CB01801B910BA20BB30B23
:1022B0000091F5031091F6032091F7033091F80394
:1022C00080179107A207B307B8F28FEF9FEF1F9116
:1022D0000F910895FC01848DDF01A80FB11DA35A51
:1022E000BF4F2C91848D90E001968F739927848F36
:1022F000A689B7892C93A089B1898C9180648C932D
:10230000938D848D981306C00288F389E02D808117
:102310008F7D80830895EF92FF920F931F93CF9349
:10232000DF93EC0181E0888F9B8D8C8D981305C025
:10233000E889F989808185FD24C0F62E0B8D10E097
:102340000F5F1F4F0F731127E02E8C8DE8120CC00A
:102350000FB607FCFACFE889F989808185FFF5CFB0
:10236000CE010E946A11F1CF8B8DFE01E80FF11DA5
:10237000E35AFF4FF0820B8FEA89FB8980818062EC
:1023800007C0EE89FF896083E889F98980818064CC
:10239000808381E090E0DF91CF911F910F91FF90BA
:1023A000EF900895CF93DF93EC01888D8823C9F0D7
:1023B000EA89FB89808185FD05C0A889B9898C914E
:1023C00086FD0FC00FB607FCF5CF808185FFF2CFE9
:1023D000A889B9898C9185FFEDCFCE010E946A1141
:1023E000E7CFDF91CF910895CF93DF93CDB7DEB7DD
:1023F000CC5AD1090FB6F894DEBF0FBECDBF78948A
:1024000084B5826084BD84B5816084BD85B58260F9
:1024100085BD85B5816085BD80916E0081608093AA
:102420006E00109281008091810082608093810013
:102430008091810081608093810080918000816023
:10244000809380008091B10084608093B10080917E
:10245000B00081608093B00080917A0084608093A6
:102460007A0080917A00826080937A0080917A006D
:10247000816080937A0080917A00806880937A00EE
:102480001092C10062E08AE00E94A70762E087E044
:102490000E94A70762E088E00E94A70762E089E047
:1024A0000E94A70762E085E00E94A7076AEF70E03C
:1024B00080E090E00E94FA0710920C0410920B0446
:1024C00010920A0410920904109208041092070452
:1024D0008FE190E090930E0480930D049091FD03A2
:1024E000963108F057C021E030E030930804209383
:1024F00007042DE130E030930A04209309042DE015
:1025000030E030930C0420930B0420916800983045
:1025100050F031E09E3008F430E081E001C0880FD7
:102520003A95EAF701C084E0822B809368009830E6
:1025300038F09E3040F0963148F020E030E008C09E
:102540002DE630E005C02BE630E002C02CE630E09E
:102550003093050420930404983030F481E001C0E6
:10256000880F9A95EAF70EC0292F30E09E3018F4B4
:102570002850310902C02E50310981E001C0880F76
:102580002A95EAF78093060480910D0490910E0439
:102590000197F1F780910B0490910C04892B21F1A4
:1025A000809174019091750123E0813F9207E1F0E1
:1025B000009711F00E94520980910F048E7F809342
:1025C0000F04109273011092720181EF93E09093C7
:1025D000750180937401E0910404F09105049081E9
:1025E00080910604892B80831092770110927601E6
:1025F0001092E402109206031092E20281E08093AE
:10260000E1021092BC0261E082E10E94770761E082
:1026100083E10E9477078091B9008E7F8093B90093
:102620008091B9008D7F8093B90088E48093B800D1
:1026300085E48093BC0088E18093B80021E047E006
:102640006BE68091DE030E945C0C6EE170E080E03E
:1026500090E00E94FA0720E046E06BE68091DE03FE
:102660000E945C0C40E76DE68091DE030E94FB0A4D
:1026700086E00E94050F40E06DE68091DE030E9437
:10268000FB0A28EE33E04FED53E060E08091DE037B
:102690000E94FC0F8090DF0328EE33E04FED53E003
:1026A00061E08091DE030E94FC0F9090DF0328EE32
:1026B00033E04FED53E062E08091DE030E94FC0FB7
:1026C000A090DF034FE765E28091DE030E94FB0AE2
:1026D00020E045E06AE68091DE030E945C0C48E65B
:1026E00065E28091DE030E94FB0A21E041E06AE698
:1026F0008091DE030E945C0C64E170E080E090E079
:102700000E94FA0701E020E040E069E877E085E810
:1027100091E00E940B0F882309F4CDC288E090E07D
:102720000E942021B82E192FE12CF12CF701EB5338
:10273000FF4F4491F701EA53FF4F2491670153E0A3
:10274000C50ED11CF701E953FF4FE491EE23D1F1FF
:10275000EE2EF12CE330D8F0B7018B2D912FC4551C
:10276000DF4F2883CC5AD040C555DF4F4883CB5A22
:10277000D0400E944D22B82E192FC555DF4F4881F9
:10278000CB5AD040C455DF4F2881CC5AD040AB2D16
:10279000B12F80E090E08E159F0548F4F601E80F18
:1027A000F91FEB53FF4FE491ED930196F4CF00E056
:1027B000B7018B2D912F0E940B0FEC0CFD1C81118A
:1027C00017C010C064E0E60EF11CF601EB53FF4F9A
:1027D000E491E13039F442E368E38091DE030E9442
:1027E000FB0A06C08B2D912F0E94B52182E064C2A6
:1027F00070ECE716F10408F499CF8B2D912F0E940D
:10280000B52103E023E042E06BE68091DE030E9405
:10281000110C42E168E38091DE030E94FB0A44E070
:1028200069E18091DE030E94FB0A01E023E045E0BC
:102830006AE18091DE030E94110C03E023E042E094
:102840006AE18091DE030E94110C22E044E06BE11A
:102850008091DE030E94110C43E060E78091DE036B
:102860000E94FB0A40E061E78091DE030E94FB0AC0
:1028700020E040E060E08091DE030E945C0C082DC7
:1028800026E046E060E08091DE030E94110C092DF5
:1028900026E046E061E08091DE030E94110C0A2DE3
:1028A00026E046E062E08091DE030E94110CE12CFC
:1028B000F12CF701EA56FF4FE491A1E8B0E0AC0F2C
:1028C000BD1FAE0DB11DEC9381E08E0D9FEFE91A97
:1028D000F90AA3E0AE1568F7CD57DF4F6881C358FA
:1028E000D04070E09B012E5F3F4F90E028173907E2
:1028F00004F700E0CE57DF4F2881C258D040CF57B1
:10290000DF4F4881C158D04081E890E08C0F9D1F77
:1029100003960E940B0F80E0F701EA56FF4FE49107
:10292000A1E8B0E0AC0FBD1FA80FB11DEC938F5F05
:10293000BFEFEB1AFB0A843078F3CD57DF4F688185
:10294000C358D04070E0AB014E5F5F4F282F30E09E
:10295000421753070CF700E0CE57DF4F2881C258CB
:10296000D040CF57DF4F4881C158D04081E890E038
:102970008C0F9D1F03960E940B0F0E94FE0E0E945B
:10298000E20F682FCE0101960E94CF0F42E06FE167
:102990008091DE030E94FB0A4CE961E28091DE0334
:1029A0000E94FB0A40E560E28091DE030E94FB0A80
:1029B00040E062E28091DE030E94FB0A0E94FE0E6C
:1029C00021E046E06AE68091DE030E945C0C21E093
:1029D00047E06AE68091DE030E945C0C21E043E060
:1029E0006AE68091DE030E945C0C80E0F701EA5603
:1029F000FF4FE491A1E8B0E0AC0FBD1FA80FB11DDF
:102A0000EC938F5FEFEFEE1AFE0A843078F3CD5728
:102A1000DF4F6881C358D04070E0AB014E5F5F4F1D
:102A2000282F30E0421753070CF700E0CE57DF4F56
:102A30002881C258D040CF57DF4F4881C158D0407D
:102A400081E890E08C0F9D1F03960E940B0F80E0A1
:102A5000F701EA56FF4FE491A1E8B0E0AC0FBD1FCB
:102A6000A80FB11DEC938F5FFFEFEF1AFF0A8430C0
:102A700078F3CD57DF4F6881C358D04070E0AB0189
:102A80004E5F5F4F282F30E0421753070CF700E0EE
:102A9000CE57DF4F2881C258D040CF57DF4F4881F3
:102AA000C158D04081E890E08C0F9D1F03960E9492
:102AB0000B0F80E0F701EA56FF4FE491A1E8B0E088
:102AC000AC0FBD1FA80FB11DEC938F5F2FEFE21A63
:102AD000F20A843078F3CD57DF4F6881C358D04075
:102AE00070E0AB014E5F5F4F282F30E04217530775
:102AF0000CF700E0CE57DF4F2881C258D040CF57A7
:102B0000DF4F4881C158D04081E890E08C0F9D1F75
:102B100003960E940B0F0E94E20F83309105D8F3B9
:102B2000682FCE0101960E94CF0F80E0F701EA5690
:102B3000FF4FE491A1E8B0E0AC0FBD1FA80FB11D9D
:102B4000EC938F5F4FEFE41AF40A843078F3CD579B
:102B5000DF4F3880C358D040832C912CA4014E5FA6
:102B60005F4F282F30E04217530704F7CE57DF4F4F
:102B7000B880C258D040CF57DF4F2880C158D040CE
:102B8000422D4F716DE68091DE030E94FB0A8B2D72
:102B90000E94050FC12CD12C612C7724739471E80D
:102BA000472E512C4C0E5D1E53E0450E511CC8148F
:102BB000D90498F5C60140968816990618F4A32CF6
:102BC000AC1802C050E1A52E8A2D90E093012B197C
:102BD00031092817390714F4AB2CA19492012C0D5C
:102BE0003D1D08EE13E04A2D6FE68091DE030E9442
:102BF0000B0BCA0CD11CBA0CC814D904C0F6B11006
:102C000001C02394422D4F716DE68091DE030E9436
:102C1000FB0A8B2D0E94050FCACF0E94E20F833062
:102C20009105D8F3682FCE0101960E94CF0FF701CE
:102C3000EA56FF4F80E09491A1E8B0E0AC0FBD1FD1
:102C4000A80FB11D9C938F5F843010F43196F3CFA1
:102C5000CD57DF4F6881C358D04070E0AB014E5F65
:102C60005F4F282F30E04217530784F700E0CE571C
:102C7000DF4F2881C258D040CF57DF4F4881C1581D
:102C8000D04081E890E08C0F9D1F03960E940B0FAF
:102C900020E047E06AE68091DE030E945C0C8AE255
:102CA00090E09093E1038093E0030E94FE0E0E9467
:102CB000E90E80E001C081E0809385010E941E1032
:102CC0004091B0025091B10263E18091DE030E9415
:102CD000CF0A4091B2025091B30265E18091DE03C8
:102CE0000E94CF0A4091B4025091B50267E18091F1
:102CF000DE030E94CF0A4091B6025091B70266E00F
:102D00008091DE030E94CF0A4091B8025091B9022F
:102D100068E08091DE030E94CF0A4091BA02509190
:102D2000BB026AE08091DE030E94CF0A21E047E007
:102D30006AE68091DE030E945C0C8DEB96E0909336
:102D40000101809300018091690083608093690094
:102D5000E89A0E94E90E8093D60181E08093E30116
:102D60008091E0039091E1039093D8018093D70183
:102D70000091F2011091F3010130110509F08AC2AE
:102D80000E941E101092F1011092F0018AE491E06D
:102D90000E9437108CE491E00E9437108EE491E09D
:102DA0000E9437108CE491E00E9437108EE491E08D
:102DB0000E9437108CE491E00E9437108EE491E07D
:102DC0000E9437108CE491E00E94371080E591E07A
:102DD0000E9437108CE491E00E94371080E591E06A
:102DE0000E9437108CE491E00E94371080E591E05A
:102DF0000E9437108CE491E00E94371080E591E04A
:102E00000E9437108CE491E00E94371080E591E039
:102E10000E9437108CE491E00E94371080E591E029
:102E20000E9437108CE491E00E94371080E591E019
:102E30000E9437108CE491E00E9437108091F201DB
:102E40009091F3010E943C108CE491E00E943710B5
:102E500062E571E081EF93E00E94E2068091F0016B
:102E60009091F101892B31F40E94960C1093F1019D
:102E70000093F0018091F0019091F101019709F028
:102E800084C1809182019091830197FD079643E070
:102E9000959587954A95E1F791958195910990933C
:102EA000E9018093E801809180019091810197FD73
:102EB000079633E0959587953A95E1F79195819539
:102EC00091099093E7018093E60120917E01309172
:102ED0007F0180E090E4821B930B97FD079623E02F
:102EE000959587952A95E1F79093E5018093E40104
:102EF00080917C0190917D0197FD03969595879532
:102F0000959587959195819591099093EF0180937F
:102F1000EE0180917A0190917B0197FD0396959542
:102F20008795959587959195819591099093ED0158
:102F30008093EC01809178019091790197FD03963F
:102F400095958795959587959195819591099093FC
:102F5000EB018093EA0100E010E44091E801509118
:102F6000E90166E08091DE030E94CF0A4091E6010C
:102F70005091E70168E08091DE030E94CF0A409102
:102F8000E4015091E5016AE08091DE030E94CF0ADE
:102F90004091EE015091EF0163E18091DE030E94C8
:102FA000CF0A4091EC015091ED0165E18091DE0383
:102FB0000E94CF0A4091EA015091EB0167E18091B4
:102FC000DE030E94CF0A0E94960C64E571E087E060
:102FD00093E00E94E20680918201909183019C011E
:102FE00097FF04C022273327281B390B29303105CE
:102FF000ACF097FD0796A3E095958795AA95E1F724
:103000002091E8013091E901B901681B790B7093B7
:10301000E9016093E80120E030E002C021E030E007
:103020008091800190918101AC0197FF04C04427F9
:103030005527481B590B493051051CF42F5F3F4F52
:1030400012C097FD0796F3E095958795FA95E1F7FD
:103050004091E6015091E701DA01A81BB90BB0934A
:10306000E701A093E60180917E0190917F01F80134
:10307000E81BF90BCF01AF01F7FF04C04427552728
:103080004E1B5F0B493051051CF42F5F3F4F11C0A1
:1030900097FD0796E3E095958795EA95E1F74091CE
:1030A000E4015091E501840F951F9093E501809311
:1030B000E40180917C0190917D01AC0197FF04C0F7
:1030C00044275527481B590B423051051CF42F5FEC
:1030D0003F4F0FC097FD0196959587954091EE0162
:1030E0005091EF01BA01681B790B7093EF01609367
:1030F000EE0180917A0190917B01AC0197FF04C0B1
:1031000044275527481B590B423051051CF42F5FAB
:103110003F4F0FC097FD0196959587954091EC0123
:103120005091ED01DA01A81BB90BB093ED01A0930A
:10313000EC018091780190917901AC0197FF04C076
:1031400044275527481B590B4230510574F425304C
:10315000310509F002CF8091F0019091F1010196C3
:103160009093F1018093F00110C097FD0196959521
:1031700087952091EA013091EB01F901E81BF90BE9
:10318000F093EB01E093EA01E8CE8091F001909199
:10319000F101029709F0C8C10E94960C8091EE01DE
:1031A0009091EF019093B1028093B0028091EC0175
:1031B0009091ED019093B3028093B2028091EA0165
:1031C0009091EB019093B5028093B4028091E80155
:1031D0009091E9019093B7028093B6028091E60145
:1031E0009091E7019093B9028093B8028091E40135
:1031F0009091E5019093BB028093BA0240EBE42EDC
:1032000042E0F42E00E010E0D7016D917D01C8018D
:103210000E945E240F5F1F4F0C301105A9F74091EB
:10322000B0025091B10263E18091DE030E94CF0AA7
:103230004091B2025091B30265E18091DE030E9499
:10324000CF0A4091B4025091B50267E18091DE034C
:103250000E94CF0A4091B6025091B70266E0809179
:10326000DE030E94CF0A4091B8025091B90268E093
:103270008091DE030E94CF0A4091BA025091BB02B6
:103280006AE08091DE030E94CF0A1092F30110924F
:10329000F2014AC18091E301882309F445C180917C
:1032A000840181112DC12091D9013091DA018091E1
:1032B000D7019091D8012817390708F021C181EF73
:1032C00093E00E94C705181619060CF06CC00E9406
:1032D0003011FC0197FD11C08D32910591F0C0971E
:1032E0000A9778F0E091F103F091F2030680F781FC
:1032F000E02D81EF93E00995EACF80E090E0DC01DA
:103300004DC020E030E0A90110E0E130F10509F006
:1033100005C4E091F103F091F2030680F781E02DFE
:1033200081EF93E0C455DF4F2883CC5AD040C75576
:10333000DF4F3883C95AD040C555DF4F4883CB5A39
:10334000D040C655DF4F5883CA5AD04009950E94D5
:103350003011FC01C097C455DF4F2881CC5AD040B2
:10336000C755DF4F3881C95AD040C555DF4F488116
:10337000CB5AD040C655DF4F5881CA5AD0400A9721
:1033800020F2E130F10509F2112309F4E6C38827A0
:103390009927DC01821B930BA40BB50B9093F301CF
:1033A0008093F2018CCF8EE00E94E307092E000C7F
:1033B000AA0BBB0B9C01AD01285C310941095109E5
:1033C000A8ECB0E00E948B242CEB32E040E050E00F
:1033D0000E946C2469017A018FE00E94E307092EA4
:1033E000000CAA0BBB0B9C01AD01285C3109410903
:1033F0005109A8ECB0E00E948B242CEB32E040E0B5
:1034000050E00E946C24F7FC07C0C601893C91057E
:103410002CF088EC90E002C080E090E09093E20114
:103420008093E10157FD07C0C901293C31052CF00B
:1034300088EC90E002C080E090E09093E0018093FF
:10344000DF018AE00E944E0721E030E0892B11F075
:1034500020E030E030930D0120930C0187E00E94C2
:103460004E0721E030E0892B11F020E030E030936E
:103470000B0120930A0188E00E944E0721E030E012
:10348000892B11F020E030E03093090120930801EE
:1034900089E00E944E0721E030E0892B11F020E006
:1034A00030E0309307012093060185E00E944E072B
:1034B00021E030E0892B11F020E030E0309305016D
:1034C0002093040185E10E94E307BC01990F880B5A
:1034D000990B0E94392328E638EE4FE95BE30E94FE
:1034E00098232BE734E14EEE5FE30E94982360932C
:1034F000DB017093DC018093DD019093DE01CFCE80
:10350000109284010E94E90E182F8093D6010E9428
:10351000E20F9093DA018093D90114FD03C0811565
:10352000944029F40E94FE0E0E943F0E21CC11FF10
:10353000FBCF0091D9011091DA01E090D701F09012
:10354000D8010E151F0538F40E94E20F9093DA019E
:103550008093D901EECF6E2D86E991E00E94CF0FC6
:103560000E191F091093DA010093D90160909A0196
:10357000712C762C662480919B01682A80909E0194
:10358000912C982C882480919F01882AA090A201D8
:10359000B12CBA2CAA248091A301A82A609196018B
:1035A00070E0762F662780919701682B072E000C1C
:1035B000880B990B0E94392320E030E040E858E363
:1035C0000E9498236B017C016093CE037093CF031C
:1035D0008093D0039093D103B301770C880B990BA0
:1035E0000E94392320E030E040E858E30E9498230D
:1035F0002B013C016093D2037093D3038093D403D7
:103600009093D503B401990C880B990B0E94392330
:1036100020E030E040E858E30E949823CF56DF4F87
:10362000688379838A839B83C159D0406093D60392
:103630007093D7038093D8039093D903B501BB0C43
:10364000880B990B0E94392320E030E040E858E3D2
:103650000E949823CB56DF4F688379838A839B83AC
:10366000C559D0406093DA037093DB038093DC0389
:103670009093DD039B01AC01C301B2010E9498232A
:103680004B015C01CF56DF4F288139814A815B8134
:10369000C159D040C701B6010E9498239B01AC01DB
:1036A000C501B4010E94081F9B01AC010E94091FC3
:1036B000C756DF4F688379838A839B83C959D0407B
:1036C0006093B0037093B1038093B2039093B303FC
:1036D000A3019201C701B6010E9498234B015C012E
:1036E000CB56DF4F288139814A815B81C559D04053
:1036F000CF56DF4F688179818A819B81C159D04043
:103700000E9498239B01AC01C501B4010E94091FCE
:103710009B01AC010E94091FC356DF4F6883798368
:103720008A839B83CD59D0406093B4037093B503D3
:103730008093B6039093B703A7019601C701B60122
:103740000E9498234B015C01A3019201C301B201C5
:103750000E9498239B01AC01C501B4010E94081F7F
:103760004B015C01CF56DF4F288139814A815B8153
:10377000C159D040CA01B9010E9498239B01AC01F4
:10378000C501B4010E94081F4B015C01CB56DF4FFD
:10379000288139814A815B81C559D040CA01B9016C
:1037A0000E9498239B01AC01C501B4010E94091F2E
:1037B0004B015C016093B8037093B9038093BA0323
:1037C0009093BB03A7019601C701B6010E94091F90
:1037D000CF55DF4F688379838A839B83C15AD0405A
:1037E000A3019201C301B2010E94091FCB55DF4F13
:1037F000688379838A839B83C55AD040A701960149
:10380000CF55DF4F688179818A819B81C15AD04031
:103810000E9498236B017C01A3019201CB55DF4FDD
:10382000688179818A819B81C55AD0400E94982302
:103830009B01AC01C701B6010E94091F20E030E0E6
:1038400040E85FE30E94081F6B017C01CF56DF4F09
:10385000288139814A815B81C159D040CB55DF4FE6
:10386000688179818A819B81C55AD0400E949823C2
:103870002B013C01CB56DF4F288139814A815B8186
:10388000C559D040CF55DF4F688179818A819B81AE
:10389000C15AD0400E9498239B01AC01C301B201E0
:1038A0000E94081FA70196010E94881F60938A0149
:1038B00070938B0180938C0190938D01A5019401ED
:1038C000C501B4010E9498236B017C01C356DF4FF0
:1038D000288139814A815B81CD59D040CA01B90123
:1038E0000E949823A70196010E94091F0E94C220EE
:1038F0009B01AC01C756DF4F688179818A819B812A
:10390000C959D0400E94E71F0E94B81F60938E01E2
:1039100070938F018093900190939101C756DF4F70
:10392000288139814A815B81C959D040CA01B901D6
:103930000E949823A70196010E94091F0E94C2209D
:103940009B01AC01C356DF4F688179818A819B81DD
:10395000CD59D0400E94E71F0E94B81F609392018A
:103960007093930180939401909395018AE491E080
:103970000E9437108CE491E00E94371020E030E084
:1039800044E353E460918A0170918B0180918C0132
:1039900090918D010E9498232BED3FE049E450E483
:1039A0000E94E71F20E030E044E353E40E94091F37
:1039B00020E030E044EB53E40E94982320E030E024
:1039C00044EB53E40E94E71F20E030E0A9010E948D
:1039D000091F6093860170938701809388019093FB
:1039E00089010E946A108CE491E00E94371020E067
:1039F00030E044E353E460918E0170918F01809137
:103A00009001909191010E9498232BED3FE049E4B1
:103A100050E40E94E71F0E946A108CE491E00E942B
:103A2000371020E030E044E353E46091920170915C
:103A3000930180919401909195010E9498232BED20
:103A40003FE049E450E40E94E71F0E946A108CE4C2
:103A500091E00E9437108091E1019091E2010E9473
:103A60003C108CE491E00E9437108091DF0190912E
:103A7000E0010E943C108CE491E00E94371080919C
:103A80000C0190910D010E943C108CE491E00E9489
:103A9000371080910A0190910B010E943C108CE438
:103AA00091E00E94371080910801909109010E94D5
:103AB0003C108CE491E00E943710809106019091B7
:103AC00007010E943C108CE491E00E943710809125
:103AD0000401909105010E943C108CE491E00E9449
:103AE00037106091DB017091DC018091DD019091D4
:103AF000DE010E946A108CE491E00E94371080E0A1
:103B000090E00E943C108CE491E00E94371062E546
:103B100071E081EF93E00E94E20606CDED32F105FF
:103B2000D1F0CF01C0970A9708F0F3CBAAE0B0E03C
:103B30000E948B246F01FF0FEE08FF08DC01CB0110
:103B40008C0D9D1DAE1DBF1D9C01AD012053310983
:103B500041095109DECB11E0DCCBDA01C9011ECCF1
:103B60008EE391E09093F2038093F10381EF93E071
:103B70000C94520910920A031092090388EE93E004
:103B8000A0E0B0E080930B0390930C03A0930D038F
:103B9000B0930E032EE131E0309308032093070326
:103BA00025EC30E0309314032093130324EC30E031
:103BB000309316032093150320EC30E03093180364
:103BC0002093170321EC30E030931A03209319035C
:103BD00022EC30E030931C0320931B0326EC30E0F2
:103BE00030931E0320931D03109220031092210393
:103BF00010922203109223031092A7031092A6039F
:103C00008093A8039093A903A093AA03B093AB0356
:103C10002EE231E03093A5032093A4031092F40325
:103C20001092F3038093F5039093F603A093F703A8
:103C3000B093F8038EE391E09093F2038093F10345
:103C4000109208041092070410920A0410920904BA
:103C500010920C0410920B0410920E0410920D049A
:103C600060910F046E7F6D7F60930F0466956170A5
:103C700081E0682784E00E94770761E084E00E9489
:103C8000A707E8E5F9E0E491E0930104E4E4F9E052
:103C9000E491F0E0EE0FFF1FE45DF64F8591949103
:103CA000909303048093020460E083E00E94A707DE
:103CB00080910F0481FD04C061E083E00E947707DA
:103CC00083E08093FD03E7E5F9E0E491E093FE03F0
:103CD000E3E4F9E0E491F0E0EE0FFF1FEA5CF64F59
:103CE00085919491909300048093FF0388E68093DC
:103CF000DE0380E090E0A0E8BFE38093CE039093E2
:103D0000CF03A093D003B093D1031092D2031092AB
:103D1000D3031092D4031092D5031092D6031092BD
:103D2000D7031092D8031092D9031092DA0310929D
:103D3000DB031092DC031092DD031092C903109292
:103D4000C8031092CB031092CA031092CD031092B5
:103D5000CC031092C3031092C2031092C5031092B9
:103D6000C4031092C7031092C6031092BD031092B1
:103D7000BC031092BF031092BE031092C1031092B5
:103D8000C0031092B0031092B1031092B2031092CC
:103D9000B3031092B4031092B5031092B6031092BD
:103DA000B7031092B8031092B9031092BA0310929D
:103DB000BB03089597FB072E16F4009407D077FDF8
:103DC00009D00E94EE1E07FC05D03EF49095819527
:103DD0009F4F0895709561957F4F0895AA1BBB1B57
:103DE00051E107C0AA1FBB1FA617B70710F0A61BFB
:103DF000B70B881F991F5A95A9F780959095BC011C
:103E0000CD010895EE0FFF1F0590F491E02D099468
:103E10005058BB27AA270E94201F0C941C240E94E4
:103E20000E2438F00E94152420F039F49F3F19F435
:103E300026F40C940B240EF4E095E7FB0C94052477
:103E4000E92F0E942D2458F3BA17620773078407DD
:103E5000950720F079F4A6F50C944F240EF4E09524
:103E60000B2EBA2FA02D0B01B90190010C01CA0134
:103E7000A0011124FF27591B99F0593F50F4503EDF
:103E800068F11A16F040A22F232F342F4427585FD1
:103E9000F3CF469537952795A795F0405395C9F7E9
:103EA0007EF41F16BA0B620B730B840BBAF09150A1
:103EB000A1F0FF0FBB1F661F771F881FC2F70EC040
:103EC000BA0F621F731F841F48F487957795679513
:103ED000B795F7959E3F08F0B0CF9395880F08F0FF
:103EE0009927EE0F9795879508950E940E2460F00C
:103EF00080E891E009F49EEF0E94152428F040E844
:103F000051E071F45EEF0CC00C940B240C944F2420
:103F1000E92FE0780E942D2440F3092E052AB1F301
:103F2000261737074807590738F00E2E07F8E025FF
:103F300069F0E025E0640AC0EF6307F8009407FA2F
:103F4000DB01B9019D01DC01CA01AD01EF930E94C3
:103F5000FE1F0E941C240E94B81F5F91552339F058
:103F60002BED3FE049E450FD49EC0C94091F089506
:103F7000DF93DD27B92FBF7740E85FE316161706FA
:103F800048075B0718F4D92F0E94B4209F938F93A2
:103F90007F936F930E940221E8E6F0E00E94882060
:103FA0000E941C242F913F914F915F910E94AB235F
:103FB000DD2351F09058A2EA2AED3FE049EC5FE39F
:103FC000D0785D270E94201FDF910C941C240E9452
:103FD000FB1F0C941C240E94152458F00E940E24F0
:103FE00040F029F45F3F29F00C94052451110C9402
:103FF00050240C940B240E942D2468F39923B1F3D0
:10400000552391F3951B550BBB27AA2762177307FE
:10401000840738F09F5F5F4F220F331F441FAA1F92
:10402000A9F335D00E2E3AF0E0E832D0915050404E
:10403000E695001CCAF72BD0FE2F29D0660F771FFC
:10404000881FBB1F261737074807AB07B0E809F0E2
:10405000BB0B802DBF01FF2793585F4F3AF09E3F67
:10406000510578F00C9405240C9450245F3FE4F340
:10407000983ED4F3869577956795B795F7959F5FAA
:10408000C9F7880F911D9695879597F90895E1E0F6
:10409000660F771F881FBB1F621773078407BA0755
:1040A00020F0621B730B840BBA0BEE1F88F7E095B0
:1040B00008950E94352488F09F5798F0B92F9927CA
:1040C000B751B0F0E1F0660F771F881F991F1AF003
:1040D000BA95C9F714C0B13091F00E944F24B1E0F5
:1040E00008950C944F24672F782F8827B85F39F0F4
:1040F000B93FCCF3869577956795B395D9F73EF49C
:1041000090958095709561957F4F8F4F9F4F089543
:10411000DF93CF931F930F93FF92EF92DF927B0178
:104120008C01689406C0DA2EEF010E94AB23FE01D9
:10413000E894A5912591359145915591A6F3EF010C
:104140000E94201FFE019701A801DA9469F7DF9011
:10415000EF90FF900F911F91CF91DF9108950E94F2
:10416000742308F48FEF08959B01AC0160E070E0C8
:1041700080E89FE30C94E71F19F416F40C940B24C9
:104180000C940B210E943524B8F39923C9F3B6F39C
:104190009F57550B87FF0E9419210024A0E640EA93
:1041A000900180585695979528F4805C660F771F8C
:1041B000881F20F026173707480730F4621B730B5F
:1041C000840B202931294A2BA69517940794202582
:1041D00031254A2758F7660F771F881F20F02617CA
:1041E0003707480730F4620B730B840B200D311D29
:1041F000411DA09581F7B901842F9158880F96959C
:10420000879508959B01AC010C9498230E94742318
:10421000880B990B08959F3F31F0915020F48795BA
:1042200077956795B795880F911D9695879597F91E
:10423000089591505040660F771F881FD2F7089558
:10424000CF93DF938230910510F482E090E0E0910B
:104250001204F091130420E030E0C0E0D0E0309789
:1042600011F14081518148175907C0F0481759078B
:1042700061F482819381209719F09B838A832BC0FC
:10428000909313048093120426C02115310519F070
:104290004217530718F49A01BE01DF01EF010280B3
:1042A000F381E02DDCCF2115310509F1281B390BF5
:1042B0002430310590F412968D919C9113976115DD
:1042C000710521F0FB019383828304C09093130452
:1042D00080931204FD01329644C0FD01E20FF31FEA
:1042E00081939193225031092D933C933AC02091B0
:1042F000100430911104232B41F4209110013091CE
:104300001101309311042093100420910E0130917B
:104310000F012115310541F42DB73EB7409112012F
:1043200050911301241B350BE0911004F0911104FE
:10433000E217F307A0F42E1B3F0B2817390778F07C
:10434000AC014E5F5F4F2417350748F04E0F5F1FDB
:1043500050931104409310048193919302C0E0E0C4
:10436000F0E0CF01DF91CF9108950F931F93CF938A
:10437000DF93009709F48CC0FC01329713821282FC
:1043800000911204109113040115110581F420818C
:104390003181820F931F209110043091110428174E
:1043A000390779F5F0931104E093100471C0D80136
:1043B00040E050E0AE17BF0750F412962D913C91AB
:1043C0001397AD012115310509F1D901F3CF9D01F5
:1043D000DA013383228360817181860F971F8217F0
:1043E000930769F4EC0128813981260F371F2E5F6E
:1043F0003F4F318320838A819B8193838283452B26
:1044000029F4F0931304E093120442C01396FC9332
:10441000EE931297ED01499159919E01240F351F9A
:10442000E217F30771F480819181840F951F029642
:1044300011969C938E938281938113969C938E9375
:104440001297E0E0F0E0D80112968D919C911397BD
:10445000009719F0F8018C01F6CF8D919C9198018D
:104460002E5F3F4F820F931F209110043091110453
:104470002817390769F4309729F410921304109221
:10448000120402C0138212821093110400931004CC
:10449000DF91CF911F910F910895A0E0B0E0E3E587
:1044A000F2E20C949A24EC01009721F4CB010E94D3
:1044B0002021B8C0FC01E60FF71F9C0122503109F2
:1044C000E217F30708F4ACC0D9010D911C911197C4
:1044D00006171707B0F00530110508F49FC0C80192
:1044E00004978617970708F499C002501109061B14
:1044F000170B019311936D937C93CF010E94B5210B
:104500008DC05B01A01AB10A4C01800E911EA091D2
:104510001204B091130440E050E0E12CF12C10970C
:1045200009F44AC0A815B905D1F56D907C90119792
:10453000630182E0C80ED11CCA14DB0480F1A30120
:104540004A195B096A0182E0C80ED11C1296BC9020
:1045500012971396AC91B5E0CB16D10440F0B2821D
:10456000A38351834083D9016D937C930AC00E5F6E
:104570001F4FC301800F911FF90191838083EB2DA1
:10458000FA2FE114F10431F0D7011396FC93EE9366
:10459000129744C0F0931304E09312043FC08D912E
:1045A0009C9111974817590708F4AC017D011296A8
:1045B0000D90BC91A02DB3CF809110049091110467
:1045C00088159905E1F446175707C8F480910E0144
:1045D00090910F01009741F48DB79EB74091120161
:1045E00050911301841B950BE817F907C8F4F09359
:1045F0001104E0931004F901718360830FC0CB01B3
:104600000E9420217C01009759F0A801BE010E9460
:104610002923CE010E94B521C70104C0CE0102C0EA
:1046200080E090E0CDB7DEB7EEE00C94B62481E0F8
:1046300090E0F8940C94FE24FB01DC0104C08D9101
:104640000190801921F441505040C8F7881B990B04
:104650000895FB01DC0102C001900D9241505040D1
:10466000D8F708950E94742308F481E00895E8942F
:1046700009C097FB3EF490958095709561957F4FAA
:104680008F4F9F4F9923A9F0F92F96E9BB27939558
:10469000F695879577956795B795F111F8CFFAF468
:1046A000BB0F11F460FF1BC06F5F7F4F8F4F9F4F99
:1046B00016C0882311F096E911C0772321F09EE8F7
:1046C000872F762F05C0662371F096E8862F70E05D
:1046D00060E02AF09A95660F771F881FDAF7880F37
:1046E0009695879597F90895990F0008550FAA0B8D
:1046F000E0E8FEEF16161706E807F907C0F01216F5
:104700001306E407F50798F0621B730B840B950BF7
:1047100039F40A2661F0232B242B252B21F408954C
:104720000A2609F4A140A6958FEF811D811D0895E9
:104730000E94AB230C941C240E940E2438F00E948B
:10474000152420F0952311F00C9405240C940B24CF
:1047500011240C9450240E942D2470F3959FC1F3D2
:10476000950F50E0551F629FF001729FBB27F00D1F
:10477000B11D639FAA27F00DB11DAA1F649F662774
:10478000B00DA11D661F829F2227B00DA11D621FC3
:10479000739FB00DA11D621F839FA00D611D221F7D
:1047A000749F3327A00D611D231F849F600D211D61
:1047B000822F762F6A2F11249F5750409AF0F1F0E4
:1047C00088234AF0EE0FFF1FBB1F661F771F881F4D
:1047D00091505040A9F79E3F510580F00C9405245C
:1047E0000C9450245F3FE4F3983ED4F3869577957C
:1047F0006795B795F795E7959F5FC1F7FE2B880FF3
:10480000911D9695879597F9089597F99F6780E888
:1048100070E060E008959FEF80EC089500240A9412
:104820001616170618060906089500240A9412168B
:104830001306140605060895092E0394000C11F4BE
:10484000882352F0BB0F40F4BF2B11F460FF04C06B
:104850006F5F7F4F8F4F9F4F089557FD9058440FC4
:10486000551F59F05F3F71F04795880F97FB991FCF
:1048700061F09F3F79F0879508951216130614068C
:10488000551FF2CF4695F1DF08C016161706180619
:10489000991FF1CF86957105610508940895E894F4
:1048A000BB2766277727CB0197F90895F999FECFA3
:1048B00092BD81BDF89A992780B50895262FF99960
:1048C000FECF1FBA92BD81BD20BD0FB6F894FA9AF3
:1048D000F99A0FBE01960895052E97FB1EF40094D9
:1048E0000E94832457FD07D00E94CD2407FC03D0EB
:1048F0004EF40C94832450954095309521953F4F6C
:104900004F4F5F4F089590958095709561957F4FBB
:104910008F4F9F4F08950E94EF24A59F900DB49F45
:10492000900DA49F800D911D112408952F923F9208
:104930004F925F926F927F928F929F92AF92BF92AF
:10494000CF92DF92EF92FF920F931F93CF93DF935B
:10495000CDB7DEB7CA1BDB0B0FB6F894DEBF0FBEB8
:10496000CDBF09942A88398848885F846E847D8405
:104970008C849B84AA84B984C884DF80EE80FD8007
:104980000C811B81AA81B981CE0FD11D0FB6F8947D
:10499000DEBF0FBECDBFED010895A1E21A2EAA1B06
:1049A000BB1BFD010DC0AA1FBB1FEE1FFF1FA217DF
:1049B000B307E407F50720F0A21BB30BE40BF50BDC
:1049C000661F771F881F991F1A9469F76095709565
:1049D000809590959B01AC01BD01CF010895A29FE8
:1049E000B001B39FC001A39F700D811D1124911DC3
:1049F000B29F700D811D1124911D089514E0C5EB27
:104A0000D4E004C0FE010E94021F2196C63BD107DC
:064A1000C9F7F894FFCF86
:104A160059055905010001000100010001000000CF
:104A26001404800001000000E803000000008B1160
:104A3600E004330E110E250ED211000000008E0682
:104A46005E0656064206330632060000000073056F
:104A5600E004C705DF055A0572053C002C0030301E
:104A660030003E0043616C6962726174696E672E44
:104A76002E2E000D0A006E616E00696E66006F765E
:024A86006600C8
:107E0000112484B714BE81FFF0D085E080938100F7
:107E100082E08093C00088E18093C10086E0809377
:107E2000C20080E18093C4008EE0C9D0259A86E02C
:107E300020E33CEF91E0309385002093840096BBD3
:107E4000B09BFECF1D9AA8958150A9F7CC24DD24C4
:107E500088248394B5E0AB2EA1E19A2EF3E0BF2EE7
:107E6000A2D0813461F49FD0082FAFD0023811F036
:107E7000013811F484E001C083E08DD089C08234E0
:107E800011F484E103C0853419F485E0A6D080C0E4
:107E9000853579F488D0E82EFF2485D0082F10E0AE
:107EA000102F00270E291F29000F111F8ED06801E7
:107EB0006FC0863521F484E090D080E0DECF843638
:107EC00009F040C070D06FD0082F6DD080E0C81688
:107ED00080E7D80618F4F601B7BEE895C0E0D1E017
:107EE00062D089930C17E1F7F0E0CF16F0E7DF06D8
:107EF00018F0F601B7BEE89568D007B600FCFDCFD4
:107F0000A601A0E0B1E02C9130E011968C91119780
:107F100090E0982F8827822B932B1296FA010C0160
:107F200087BEE89511244E5F5F4FF1E0A038BF0790
:107F300051F7F601A7BEE89507B600FCFDCF97BE46
:107F4000E89526C08437B1F42ED02DD0F82E2BD052
:107F50003CD0F601EF2C8F010F5F1F4F84911BD097
:107F6000EA94F801C1F70894C11CD11CFA94CF0C13
:107F7000D11C0EC0853739F428D08EE10CD085E9AC
:107F80000AD08FE07ACF813511F488E018D01DD067
:107F900080E101D065CF982F8091C00085FFFCCF94
:107FA0009093C60008958091C00087FFFCCF809118
:107FB000C00084FD01C0A8958091C6000895E0E648
:107FC000F0E098E1908380830895EDDF803219F02E
:107FD00088E0F5DFFFCF84E1DECF1F93182FE3DFCA
:107FE0001150E9F7F2DF1F91089580E0E8DFEE27F6
:047FF000FF270994CA
:027FFE00040479
:0400000300007E007B
:00000001FF
