:100000000C94B6040C949D080C9476080C94C408C7
:100010000C94C4080C94C4080C94DE040C94DE0404
:100020000C94DE040C94DE040C94DE040C94DE04C8
:100030000C94DE040C94DE040C94DE040C94DE04B8
:100040000C942C080C94DE040C9408070C94E20623
:100050000C94DE040C94DE040C94DE040C94DE0498
:100060000C9454090C94DE04084AD73B3BCE016E35
:1000700084BCBFFDC12F3D6C74319ABD56833DDAFF
:100080003D00C77F11BED9E4BB4C3E916BAAAABE0E
:10009000000000803F0001B202FFFF01900409232D
:1000A000A135016A0206000160080000000000009E
:1000B00000000060044000000001620200000060D7
:1000C0000400400000037B034CCD6C03AB033656A9
:1000D0007600680402CB47A202180400058BC10118
:1000E0000C0400000000037F060CC92C97979703AF
:1000F0008903264666006C022000024004000000CE
:100100000002440400000000024804000000000255
:100110004C040000000002500400000000025404DF
:100120000000000002580400000000025C0400000F
:10013000000002BC040000000001EC0400004000CC
:10014000037F060CC92C9797970402030D355D04B5
:100150000904872D353D00A301000000000107863A
:1001600001FE074105F120283038077E013007469F
:10017000019A074704F1283038076C04F128303819
:100180000216020001FB00003E000B0036000100D9
:10019000020003000000650054FFEF0000FA800039
:1001A0000B128200010002000000000000000000AD
:1001B000000000000000280000FFFF4581FFFFFA5B
:1001C0007200000000000003E80000000100017F51
:1001D000FFFFFE8001001B00000000000000000087
:1001E0000000000000003E03304000000002CAE3AF
:1001F000093E8000002000000000000000400000D8
:10020000006000000041FF000000000B2A00001603
:100210005500002182FD872650FD800000001F0050
:100220000000058000000000000001000000020046
:100230000000030000400000000000046F000265A1
:100240003200005EC040000000000000000000001E
:100250000000000000FB8C6F5DFD5D08D9007C7321
:100260003B006C12CC3200139D3200D0D632000815
:1002700000400001F4FFE68079020000000000D099
:10028000D600002710FB0000004000000000000026
:10029000000000000000000001000000000000015C
:1002A00000010000000000FA36FFBC308E0005FBA4
:1002B000F0FFD95BC8FFD09ABE000010A9FFF41E62
:1002C000B200CEBBF70000000100000004000200F5
:1002D000020200000CFFC280000001800000CF80FD
:1002E00000400000000000000100000000000006C7
:1002F00000000000140000000000000000000000EA
:1003000000000000000000000000000000000000ED
:1003100000000000000000000000000000000000DD
:10032000000000000000000000033F68B679352897
:10033000BCC67ED16C80000000400000000000B20E
:100340006A00000000000000000000000000003F04
:10035000F00000003000000000000000000000007D
:10036000000000000000000000000000000000008D
:1003700000000000000000254D002F706D000005FA
:10038000AE000C02D00000000000650054FFEF003A
:100390000000000000000001000044000000000C0C
:1003A0000000000100000000000065000000540093
:1003B00000FFEF000000000000000000000000004F
:1003C00000000000004000000000000000000000ED
:1003D00000000000004000000000000000000000DD
:1003E000000000000000000001000000020000000A
:1003F00000000000000000000000000000000000FD
:1004000000000000000000000000000000000000EC
:100410000000000000001B000000000000000000C1
:1004200000000000000000000000000000000000CC
:1004300000000000000000000000000000000000BC
:100440000040000000001B00000000000000000051
:10045000000000000000000000000000000000009C
:10046000000000000000000000000000000000008C
:10047000000000000000000000000000000000007C
:100480000000000000D8DCBAA2F1DEB2B8B4A88146
:1004900091F74A907F916AF3F9DBA8F9B0BAA0808E
:1004A000F2CE81F3C2F1C1F2C3F3CCA2B280F1C6A5
:1004B000D880BAA7DFDFDFF2A7C3CBC5B6F087A22B
:1004C000942448703C95406834589B78A2F18392FC
:1004D0002D557DD8B1B4B8A1D09180F270F370F2EF
:1004E0007C80A8F101B09887D943D886C988BAA181
:1004F000F20EB89780F1A9DFDFDFAADFDFDFF2AA13
:10050000C5CDC7A90CC92C97979797F1A9892646FD
:1005100066B0B4BA80ACDEF2CAF1B28C02A9B69869
:1005200000890E161EB8A9B4992C547CB08AA896DE
:10053000365676F1B9AFB4B083C0B8A89711B18F71
:1005400098B9AFF0240844106418F1A329557DAF81
:1005500083B593AFF0002850F1A3869F61A6DADE41
:10056000DFD9FAA38696DB31A6D9F8DFBAA68FC207
:10057000C5C7B28CC1B8A2DFDFDFA3DFDFDFD8D809
:10058000F1B8A8B286B4980D355DB8AA98B0872D99
:10059000353DB2B6BAAF8C96198F9FA70E161EB412
:1005A0009AB8AA872C547CB9A3DEDFDFA3B180F20E
:1005B000C4CDC9F1B8A9B499830D355D89B9A32D0E
:1005C000557DB593A30E161EA92C547CB8B4B0F17A
:1005D0009783A81184A50998A383F0DA240844100E
:1005E0006418D8F1A529557DA58595021A2E3A568D
:1005F0005A4048F9F3A3D9F8F098832408441064CA
:10060000189782A8F111F098A2240844106418DA0F
:10061000F3DED883A59401D9A302F1A2C3C5C7D83C
:10062000F18492A24DDA2AD84869D92AD86855DAD5
:1006300032D85071D932D8705DDA3AD85879D93A6F
:10064000D87893A34DDA2AD84869D92AD86855DAD8
:1006500032D85071D932D8705DDA3AD85879D93A4F
:10066000D878A88A9AF02850789EF38818F19F1DB0
:1006700098A8D908D8C89F129EF315A8DA1210D8E6
:10068000F1AFC8978734B5B994A421F3D922D8F231
:100690002DF3D92AD8F235F3D932D881A46060611C
:1006A000D961D86C6869D969D8747071D971D8B1B9
:1006B000A384193D5DA3831A3E5E9310308110110F
:1006C000B8B0AF8F94F2DA3ED8B49AA88729DAF896
:1006D000D8879A35DAF8D8879A3DDAF8D8B1B9A42C
:1006E0009885022E56A581000C14A397B08AF12D8F
:1006F000D928D84DD948D86DD968D8B1840DDA0E2B
:10070000D8A32983DA2C0ED8A3844983DA2C4C0E83
:10071000D8B8B0A88A9AF520AADADFD8A840AAD01B
:10072000DADED8A860AADAD0DFD8F19786A8319BA4
:10073000069907AB9728889BF00C201440B8B0B4FA
:10074000A88C9CF0042851791D301438B282ABD0AB
:10075000982C505078789BF11AB0F08A9CA82951B7
:10076000798B2951798A2470598B2058718A446970
:10077000388B3940688A6448318B304960A58820BD
:100780000971584468113964493019F1AC002C548E
:100790007CF08CA804285078F1889726A85998AC4A
:1007A0008C02264666F0899CA82951792470594408
:1007B0006938644831A98809205970AB11384069FB
:1007C000A8193148608CA83C415C207C00F18798D6
:1007D0001986A86E767EA999882D557D9EB9A38A23
:1007E000228A6E8A568A5E9FB183062646660E2E40
:1007F0004E6E9DB8AD002C547CF2B18CB499B9A367
:100800002D557D8191AC38AD3AB58391AC2DD92869
:10081000D84DD948D86DD968D88C9DAE29D904AEA9
:10082000D851D904AED879D904D881F39DAD008DC3
:10083000AE1981ADD901D8F2AEDA26D88E912983CE
:10084000A7D9ADADADADF32AD8D8F1B0AC89913E02
:100850005E76F3AC2E2EF1B18C5A9CAC2C28282855
:100860009CAC3018A8988128343C9724A728343CA5
:100870009C24F2B089AC912C4C6C8A9B2DD9D8D891
:1008800051D9D8D879D9D8D8F19E88A331DAD8D817
:10089000912DD928D84DD948D86DD968D8B183932E
:1008A000353D8025DAD8D88569DAD8D8B49381A3C4
:1008B00028343CF3AB8BF8A391B609B4D9ABDEFA7C
:1008C000B0879CB9A3DDF1A3A3A3A395F1A3A3A330
:1008D0009DF1A3A3A3A3F2A3B49080F2A3A3A3A327
:1008E000A3A3A3A3A3A3B2A3A3A3A3A3A3B087B5C6
:1008F00099F1A3A3A398F1A3A3A3A397A3A3A3A34D
:10090000F39BA3A3DCB9A7F1262626D8D8FF0000C5
:100910000000240027002A00000000080002010057
:1009200000030407000000000000000000000000B9
:10093000250028002B0000000000230026002900CD
:100940000404040404040404020202020202030375
:10095000030303030102040810204080010204087D
:100960001020010204081020591C4F1C11241FBE26
:10097000CFEFD8E0DEBFCDBF11E0A0E0B1E0E0E90D
:10098000F6E402C005900D92AE36B107D9F724E027
:10099000AEE6B1E001C01D92AC30B207E1F714E061
:1009A000C5EBD4E004C02197FE010E94A11DC43B09
:1009B000D107C9F70E9408110C943B230C94000046
:1009C000CF92DF92EF92FF920F931F93CF93DF931B
:1009D0006C017A018B01C0E0D0E0CE15DF0589F013
:1009E000D8016D918D01D601ED91FC910190F081BE
:1009F000E02DC6010995892B11F47E0102C02196D4
:100A0000ECCFC701DF91CF911F910F91FF90EF9035
:100A1000DF90CF900895833081F028F4813099F0F1
:100A20008230A1F008958730A9F08830B9F0843081
:100A3000D1F4809180008F7D03C0809180008F77FA
:100A400080938000089584B58F7702C084B58F7D30
:100A500084BD08958091B0008F7703C08091B0006D
:100A60008F7D8093B00008953FB7F8948091A402E1
:100A70009091A502A091A602B091A70226B5A89BCD
:100A800005C02F3F19F00196A11DB11D3FBFBA2F20
:100A9000A92F982F8827820F911DA11DB11DBC0180
:100AA000CD0142E0660F771F881F991F4A95D1F745
:100AB0000895089520917001309171012817390728
:100AC00071F490916E0180916F01981741F0E0915F
:100AD0006E01F0E0E15AFD4F808190E008958FEFC4
:100AE0009FEF089508951F93CF93DF93DC015C96E9
:100AF0002D913C915D972115310539F481E090E00D
:100B000013969C938E9312973DC05196ED91FC9154
:100B1000529750969C915097892F80951FB75E965B
:100B20004C915E9741FB772770F941FD6095F894F1
:100B30004081772311F0492B01C048234083E9010C
:100B40002197F1F748E0508160FF02C0592B01C0A6
:100B500058235083E9012197F1F76695415099F7A1
:100B6000772321F090818923808303C08081982B93
:100B700090831FBF5C968D919C915D970197F1F7D3
:100B800021E030E0C901DF91CF911F9108952091BC
:100B90007001309171012817390771F480916F014C
:100BA00020916E0190E0805C9F4F821B910960E470
:100BB00070E00E94791D089580E090E008952091F2
:100BC00070013091710128173907B9F490916E01C5
:100BD00080916F01981789F0E0916E01F0E0E15A81
:100BE000FD4F808120916E0130E02F5F3F4F2F73CA
:100BF000332720936E0190E008958FEF9FEF0895C3
:100C000085ED8093BC008091BC0084FDFCCF1092E8
:100C1000DA02089540913A02262F30E0240F311D68
:100C200021323105DCF42091DA022430C9F4FC01D0
:100C300080E090E0861758F430913A022191DC016F
:100C4000A85EBD4FA30FB11D2C930196F3CF8091E9
:100C50003A02680F60933A0280E0089581E00895B7
:100C600082E008950895E091730180917201E81780
:100C700030F4F0E0E850FE4F808190E008958FEF6F
:100C80009FEF08959091730180917201981750F42D
:100C9000E92FF0E0E850FE4F208130E09F5F909315
:100CA000730102C02FEF3FEFC901089580917201D7
:100CB00090E020917301821B91090895CF92DF92F9
:100CC000EF92FF920F931F93CF93DF937C01262F18
:100CD000972F8A018091DB02882391F0C62FD72FAE
:100CE0006E01C40ED51ECC15DD0571F06991D701DA
:100CF000ED91FC910190F081E02DC7010995F3CFB2
:100D0000642F822F0E940A06C801DF91CF911F91A4
:100D10000F91FF90EF90DF90CF900895CF93DF93E6
:100D20001F92CDB7DEB769832091DB022223D1F079
:100D30002091FE02203240F021E030E0FC013383BC
:100D4000228380E090E015C08091DC02E82FF0E083
:100D5000E352FD4F998190838F5F8093DC028093F3
:100D6000FE0205C061E0CE0101960E940A0681E004
:100D700090E00F90DF91CF91089581E08093800102
:100D800008950E947D218FEF92E00E94140E21E0D1
:100D9000892B09F420E0822F08956115710579F0FF
:100DA000FB0101900020E9F73197AF01461B570B7B
:100DB000DC01ED91FC910280F381E02D099480E04B
:100DC00090E008951F920F920FB60F9211242F9367
:100DD0003F934F935F936F937F938F939F93AF93C3
:100DE000BF93EF93FF938FEF92E00E947410FF91F7
:100DF000EF91BF91AF919F918F917F916F915F9193
:100E00004F913F912F910F900FBE0F901F9018950B
:100E10001F920F920FB60F9211242F938F939F93CF
:100E2000EF93FF93E0910F03F09110038081E09125
:100E30001503F091160382FD12C090818091180372
:100E40008F5F8F7320911903821751F0E09118037F
:100E5000F0E0E150FD4F958F8093180301C0808131
:100E6000FF91EF919F918F912F910F900FBE0F9057
:100E70001F901895CF93DF93282F30E0F901E85E9B
:100E8000F64F8491F901EC5AF64FD491F901E05CE8
:100E9000F64FC491CC2391F081110E940B05EC2FE9
:100EA000F0E0EE0FFF1FEA5CF64FA591B491EC91D4
:100EB000ED2381E090E021F480E002C080E090E04A
:100EC000DF91CF9108951F93CF93DF93282F30E0C8
:100ED000F901E85EF64F8491F901EC5AF64FD4918E
:100EE000F901E05CF64FC491CC23C9F0162F8111B3
:100EF0000E940B05EC2FF0E0EE0FFF1FE45DF64FB4
:100F0000A591B4918FB7F894111105C09C91ED2F64
:100F1000E095E92302C0EC91ED2BEC938FBFDF91BC
:100F2000CF911F910895CF93DF9390E0FC01EC5A8D
:100F3000F64F2491FC01E05CF64F8491882361F127
:100F400090E0880F991FFC01E25FF64FC591D491A4
:100F5000FC01E45DF64FA591B491611109C09FB702
:100F6000F8948881209582238883EC912E230BC0EE
:100F7000623061F49FB7F8943881822F8095832383
:100F80008883EC912E2B2C939FBF06C08FB7F894CB
:100F9000E8812E2B28838FBFDF91CF9108958E306B
:100FA00008F08E508770806480937C0080917A0076
:100FB000806480937A0080917A0086FDFCCF8091D6
:100FC00078002091790090E0922B08958F929F9263
:100FD000AF92BF92CF92DF92EF92FF926B017C01B2
:100FE0000E9434054B015C01C114D104E104F104F9
:100FF000F1F00E943405DC01CB0188199909AA0996
:10100000BB09883E9340A105B10570F321E0C21AE7
:10101000D108E108F10888EE880E83E0981EA11C33
:10102000B11CC114D104E104F10419F7DDCFFF9024
:10103000EF90DF90CF90BF90AF909F908F900895EA
:101040002FB7F8946091A0027091A1028091A20242
:101050009091A3022FBF08951F920F920FB60F9287
:1010600011242F933F938F939F93AF93BF938091BE
:10107000A0029091A102A091A202B091A30230918E
:101080009F0223E0230F2D3720F40196A11DB11DEF
:1010900005C026E8230F0296A11DB11D20939F02D3
:1010A0008093A0029093A102A093A202B093A30206
:1010B0008091A4029091A502A091A602B091A702EE
:1010C0000196A11DB11D8093A4029093A502A09347
:1010D000A602B093A702BF91AF919F918F913F91CC
:1010E0002F910F900FBE0F901F9018951F920F9287
:1010F0000FB60F9211242F933F934F935F936F93EB
:101100007F938F939F93AF93BF93EF93FF93E09160
:101110000201F09103010995FF91EF91BF91AF9109
:101120009F918F917F916F915F914F913F912F91FF
:101130000F900FBE0F901F9018951F920F920FB631
:101140000F9211242F933F934F935F936F937F934D
:101150008F939F93AF93BF93EF93FF93E091000121
:10116000F09101010995FF91EF91BF91AF919F918E
:101170008F917F916F915F914F913F912F910F9040
:101180000FBE0F901F9018951F920F920FB60F92DF
:1011900011242F933F934F935F936F937F938F937C
:1011A0009F93AF93BF93EF93FF93E0917001F09102
:1011B0007101309709F451C0968DA685B785858554
:1011C00091FF04C09C91892329F447C09C918923F5
:1011D00009F043C0A389B4899C91858980958923AE
:1011E0008C93868997890197F1F7608D718DA6851B
:1011F000B785558538E020E0CB010197F1F7822FC4
:1012000090E095958795282F4C91452309F020680B
:10121000315091F7868D81FD209580916F0190E08E
:1012200001968F73992730916E01381749F0A0917C
:101230006F01B0E0A15ABD4F2C9380936F0103C0A2
:10124000868D8160868F828D938D0197F1F7A389BA
:10125000B4899C918589892B8C93FF91EF91BF91E3
:10126000AF919F918F917F916F915F914F913F913E
:101270002F910F900FBE0F901F901895E091700165
:10128000F0917101E817F90769F4A389B4899C9179
:101290008589809589238C93109271011092700139
:1012A00081E0089580E008951F920F920FB60F928B
:1012B00011242F933F934F935F936F937F938F935B
:1012C0009F93AF93BF93EF93FF938091B900887F73
:1012D000803609F49CC068F5883209F45BC090F44C
:1012E000803109F454C038F4882309F4F6C08830FA
:1012F00009F44DC0F6C0883109F44CC0803209F4BD
:101300005DC0EFC0803409F468C048F4803309F44C
:1013100055C0883309F0E5C08093D802D8C0803525
:1013200009F44FC0883509F45DC0883409F0D9C08C
:10133000D6C0883909F4C7C0A8F4883709F467C053
:1013400038F4883609F463C0803709F460C0C9C036
:10135000883809F4B8C0803909F45FC0803809F0D2
:10136000C0C05BC0803B09F486C038F4803A09F401
:1013700066C0883A09F47FC0B4C0803C09F4A7C0B5
:10138000883C09F4A4C0883B09F48AC0AAC08091B3
:10139000B50210C09091D7028091D602981770F5CF
:1013A000E091D70281E08E0F8093D702F0E0EA54FB
:1013B000FD4F80818093BB0085EC86C08093D8026E
:1013C0008EC0E091D70281E08E0F8093D70280918A
:1013D000BB00F0E0EA54FD4F80839091D7028091EA
:1013E000D6026EC0E091D70281E08E0F8093D702C3
:1013F0008091BB00F0E0EA54FD4F80838091D902D8
:1014000081116DC081E08093B40284EA61C083E001
:101410008093DA0210925E02CFCF80915E0280321A
:1014200008F051C0E0915E0281E08E0F80935E0271
:101430008091BB00F0E0E25CFD4F8083BDCF85EC86
:101440008093BC001092DA0280915E02803230F408
:10145000E0915E02F0E0E25CFD4F108260915E027E
:1014600070E0E0913C02F0913D028EE392E009953C
:1014700010925E0236C084E08093DA0210923B0242
:1014800010923A02E0913802F09139020995809168
:101490003A02811105C081E080933A02109218024D
:1014A000E0913B0281E08E0F80933B02F0E0E85E2A
:1014B000FD4F80818093BB0090913B0280913A0266
:1014C000981708F479CF85E88093BC000AC085ECB2
:1014D0008093BC001092DA0204C01092D8020E94DD
:1014E0000006FF91EF91BF91AF919F918F917F91F6
:1014F0006F915F914F913F912F910F900FBE0F9081
:101500001F901895EF92FF920F931F93CF93DF9345
:1015100000D0CDB7DEB7142F91E09093DB0280931B
:10152000FD021092DC021092FE028CE993E0298306
:101530003A830E948E062981022FE22E3A81F32EF1
:101540008E2D801B811740F4F70161917F018CE99A
:1015500093E00E948E06F4CF0E94200E91E081114C
:1015600090E0892F0F900F90DF91CF911F910F91F5
:10157000FF90EF9008951F93CF93DF9300D0CDB7E6
:10158000DEB75A83498391E09093DB028093FD029A
:101590001092DC021092FE028CE993E00E948E060B
:1015A00019816A818CE993E00E948E06612F8CE993
:1015B00093E00E948E060E94200E91E0811190E03F
:1015C000892F0F900F90DF91CF911F910895CF93A6
:1015D000DF931F92CDB7DEB749839E012F5F3F4F48
:1015E00041E00E94820A0F90DF91CF9108952F92DF
:1015F0003F924F925F926F927F928F929F92AF92A3
:10160000BF92CF92DF92EF92FF920F931F93CF93EF
:10161000DF93CDB7DEB727970FB6F894DEBF0FBEC6
:10162000CDBFE82E6B834F8369010E9420084B01D8
:101630005C016E2C660CF12C1E82772473945F8102
:10164000452F50E05D834C831801412C512C4F8174
:10165000F41608F099C07092DB02E092FD0210923D
:10166000DC021092FE026B818CE993E00E948E06F0
:101670000E94200E7092DB02E092FD021092DC02CA
:101680001092FE028091DA028111FCCF2C813D8103
:101690002F1931092132310514F020E230E02132D6
:1016A00008F020E27092DA027092D9028FEF8093F4
:1016B000D8021092D702820F8093D6027092B502A0
:1016C0008091B50286298093B5028091B402813061
:1016D00071F41092B4028091B5028093BB008091A6
:1016E000BC0083FDF8CF95EC9093BC0003C0E5EE01
:1016F000E093BC008091DA028130E1F38091D7025F
:10170000821710F42091D702A6EBB2E0E8EFF1E0E7
:101710008E2F48EF51E0841B821718F48D9181932E
:10172000F7CF109273012093720190917201809112
:101730007301981719F10115110599F4A6012E816D
:10174000420F511D27FD5A955A8349838CE993E036
:101750000E944206E981FA8180832E812F5F2E83C9
:10176000E4CF0E942008DC01CB0188199909AA095D
:10177000BB0982159305A405B50500F38F8181325D
:1017800008F080E2F80E63CFFE8001151105D9F054
:101790000E942008DC01CB0188199909AA09BB091C
:1017A00020E030E080179107A207B30760F05F8167
:1017B000252F30E08F2D0F2C000C990B82179307EB
:1017C00014F4FF24FA948F2D27960FB6F894DEBFF9
:1017D0000FBECDBFDF91CF911F910F91FF90EF9082
:1017E000DF90CF90BF90AF909F908F907F906F9041
:1017F0005F904F903F902F900895BF92CF92DF92CD
:10180000EF92FF920F931F93CF93DF931F92CDB769
:10181000DEB7F82EE62EC42EB22ED02E08EE13E040
:101820009E012F5F3F4F41E00E94F70A882321F17C
:10183000EC2DF0E0EB19F109319621E030E002C027
:10184000220F331FBA94E2F7215031090E2E01C046
:10185000220F0A94EAF78D2D01C0880FEA95EAF766
:10186000422F4095998149232823422B49836E2D8D
:101870008F2D0E94E70A01C080E00F90DF91CF9189
:101880001F910F91FF90EF90DF90CF90BF90089540
:10189000CF92DF92EF92FF920F931F93CF93DF933C
:1018A0001F92CDB7DEB7F82EE62ED42EC22E08EE4C
:1018B00013E09E012F5F3F4F41E00E94F70A99819C
:1018C000CC2041F041E050E001C0440FDA94EAF747
:1018D000492B09C021E030E0A90101C0440FDA948E
:1018E000EAF74095492349836E2D8F2D0E94E70A20
:1018F0000F90DF91CF911F910F91FF90EF90DF90AC
:10190000CF9008952F923F924F925F926F927F9265
:101910008F929F92AF92BF92CF92DF92EF92FF92FF
:101920000F931F93CF93DF93CDB7DEB768970FB6B2
:10193000F894DEBF0FBECDBF412C512C3201198A65
:101940001A8A1B8A1C8A1D861E861F86188A19867B
:101950001A861B861C861D821E821F82188619828B
:101960001A821B821C82812C912C5401A0E2CA2E67
:10197000A3E0DA2EE12CF12C08EE13E027ED33E0A2
:101980004EE06BE38091D6030E94F70AA091D70343
:10199000B0E0BA2FAA278091D803A82BB093F70103
:1019A000A093F601E091D903F0E0FE2FEE2780919D
:1019B000DA031F01282A3092F5012092F4012091C8
:1019C000DB0330E0322F22278091DC038901082BD2
:1019D0001E8B0D8B1093F3010093F2016091DF03D6
:1019E00070E0762F66278091E003682B7093F101F9
:1019F0006093F0014091E10350E0542F442780911F
:101A0000E203482B5093EF014093EE018091E303F2
:101A100090E0982F88271091E4039C01212B388FA8
:101A20002F8B3093ED012093EC0135E68316910462
:101A3000A104B1040CF4AAC0CD01BB0FAA0BBB0BCF
:101A400009811A812B813C81080F191F2A1F3B1F16
:101A500009831A832B833C83C101330CAA0BBB0B74
:101A60000D811E812F813885080F191F2A1F3B1FEA
:101A70000D831E832F8338878D899E898C01990F52
:101A8000220B330B89859A85AB85BC85800F911F0E
:101A9000A21FB31F89879A87AB87BC878B01770FFB
:101AA000220B330B8D859E85AF85B889800F911FE2
:101AB000A21FB31F8D879E87AF87B88B052E000CA2
:101AC000660B770B09891A892B893C89040F151F2E
:101AD000261F371F098B1A8B2B8B3C8B2F89388D38
:101AE000C901330FAA0BBB0B480E591E6A1E7B1E81
:101AF00034E8831633E09306A104B10409F046C02C
:101B000069817A818B819C81A70196010E94A9221B
:101B100030937F0120937E016D817E818F81988536
:101B2000A70196010E94A92230937D0120937C0198
:101B300069857A858B859C85A70196010E94A922DB
:101B400030937B0120937A016D857E858F859889FE
:101B5000A70196010E94A922309379012093780170
:101B600069897A898B899C89A70196010E94A9229B
:101B70003093770120937601C301B201A70196014A
:101B80000E94A92230937501209374014FEF841AAB
:101B9000940AA40AB40A62E070E080E090E00E9437
:101BA000E60755E8851653E09506A104B10409F04F
:101BB000E3CE68960FB6F894DEBF0FBECDBFDF91BF
:101BC000CF911F910F91FF90EF90DF90CF90BF903A
:101BD000AF909F908F907F906F905F904F903F90CD
:101BE0002F900895FC01918D828D981761F0828D60
:101BF000DF01A80FB11D5D968C91928D9F5F9F7341
:101C0000928F90E008958FEF9FEF0895FC01918DE2
:101C1000828D981731F0828DE80FF11D858D90E04F
:101C200008958FEF9FEF0895FC01918D228D892FEC
:101C300090E0805C9F4F821B91098F7399270895D4
:101C40002091FE029091FD02213208F04AC080915D
:101C5000DA028111FCCF32E03093DA0231E03093C6
:101C6000D9023FEF3093D8021092D7022093D602C8
:101C7000ADEDB2E046EB52E0FA013E2F341B3217D5
:101C800018F43D913193F9CF1092B5022091B5022D
:101C9000990F922B9093B5029091B402913061F418
:101CA0001092B4029091B5029093BB009091BC0049
:101CB00093FDF8CF95EC01C095EE9093BC00909108
:101CC000DA029230E1F39091D8029F3F79F080914F
:101CD000D802803241F08091D802803331F084E024
:101CE00005C081E003C082E001C083E01092DC0205
:101CF0001092FE021092DB0208950F931F93CF9370
:101D0000DF93C6EDD3E008EE13E027ED33E041E0CA
:101D10006AE388810E94F70A8981DF91CF911F9140
:101D20000F91089521E042E06AE68091D6030C9479
:101D3000480C482F6EE68091D6030C94E70A2F9248
:101D40003F924F925F926F927F928F929F92AF924B
:101D5000BF92CF92DF92EF92FF920F931F93CF9398
:101D6000DF933C015B01342ED22F202E4F716DE6A4
:101D70008091D6030E94E70A8D2F0E94990E80E180
:101D800090E00E94861F6C01002339F080E190E012
:101D90000E94861FC82F492E02C0C0E0412CE12CB2
:101DA000F12CEA14FB0408F06EC0C7014096A81697
:101DB000B90618F45A2C5E1802C080E1582E852D01
:101DC00090E020E031E02D1B31092817390714F489
:101DD0005D2E5194F301EE0DFF1D222059F09C2F32
:101DE000AC2FB42D8A2F891B851530F484918D93E7
:101DF0003196F8CFCE2F4F2E2C2F342D452D6FE658
:101E00008091D6030E94820A852C912CC114D104A2
:101E100029F1432D4F716DE68091D6030E94E70AA8
:101E20008D2F0E94990E08EE13E09601452D6FE666
:101E30008091D6030E94F70AA401B6018C2F942D3D
:101E40000E948221892B51F0C6010E941B20222072
:101E500021F18C2F942D0E941B201FC0E80CF91C2F
:101E6000D50DEA14FB0408F09CCFD11101C03394C6
:101E7000432D4F716DE68091D6030E94E70A8D2FA6
:101E80000E94990E8ECFC6010E941B20222039F09D
:101E90008C2F942D0E941B2002C080E001C081E0A5
:101EA000DF91CF911F910F91FF90EF90DF90CF9036
:101EB000BF90AF909F908F907F906F905F904F906A
:101EC0003F902F9008950F931F93662351F0462F54
:101ED0009C0108EE13E064E78091D6030E94F70AA4
:101EE00002C0FC0110821F910F9108950F931F9360
:101EF000CF93DF93C6EDD3E008EE13E027ED33E098
:101F000042E062E788810E94F70A898190E0982F79
:101F100088272A81822BDF91CF911F910F910895FD
:101F2000EF92FF920F931F93CF93DF931F92CDB742
:101F3000DEB77A0189019E012F5F3F4F41E00E9489
:101F4000F70A882339F029812E7730E035952795D7
:101F5000F70120830F90DF91CF911F910F91FF9098
:101F6000EF9008950F931F93CF93DF9308EA12E049
:101F7000C0E0D0E0CE010E949322F80181938F014E
:101F80002196CC30D105B1F78CE090E0DF91CF9174
:101F90001F910F9108958F929F92AF92BF920F93CE
:101FA0001F93CF93DF93CDB7DEB7A1970FB6F89409
:101FB000DEBF0FBECDBF19A2423008F44AE08E0149
:101FC0000F5D1F4F842E912CA12CB12CA5019401E3
:101FD0000E940A23E62FB901CA0101501109EA3013
:101FE00014F4E05D01C0E95CD801EC93232B242BB1
:101FF000252B61F7B80189EE93E00E94CD06A196EA
:102000000FB6F894DEBF0FBECDBFDF91CF911F9109
:102010000F91BF90AF909F908F900895CF92DF92D5
:10202000EF92FF92CF93DF936B017C01E091E90384
:10203000F091EA030190F081E02D6DE289EE93E0EA
:102040000995EC0166277727CB016C197D098E096C
:102050009F094AE00E94CB0F8C0F9D1FDF91CF910B
:10206000FF90EF90DF90CF900895BC0189EE93E050
:102070000C94CD060F931F930E9420086093F103E8
:102080007093F2038093F3039093F403E091E903D8
:10209000F091EA030084F185E02D89EE93E0099543
:1020A00097FF1FC00E9420080091F1031091F203D6
:1020B0002091F3033091F403DC01CB01801B910BE1
:1020C000A20BB30B0091ED031091EE032091EF03EF
:1020D0003091F00380179107A207B307B8F28FEF92
:1020E0009FEF1F910F910895FC01848DDF01A80FD0
:1020F000B11DA35ABF4F2C91848D90E001968F7330
:102100009927848FA689B7892C93A089B1898C914E
:1021100080648C93938D848D981306C00288F38914
:10212000E02D80818F7D80830895EF92FF920F9341
:102130001F93CF93DF93EC0181E0888F9B8D8C8D73
:10214000981305C0E889F989808185FD24C0F62EA1
:102150000B8D10E00F5F1F4F0F731127E02E8C8D3A
:10216000E8120CC00FB607FCFACFE889F989808124
:1021700085FFF5CFCE010E947410F1CF8B8DFE014B
:10218000E80FF11DE35AFF4FF0820B8FEA89FB89BC
:102190008081806207C0EE89FF896083E889F989C0
:1021A00080818064808381E090E0DF91CF911F91F6
:1021B0000F91FF90EF900895CF93DF93EC01888DFE
:1021C0008823C9F0EA89FB89808185FD05C0A8893B
:1021D000B9898C9186FD0FC00FB607FCF5CF8081C1
:1021E00085FFF2CFA889B9898C9185FFEDCFCE010B
:1021F0000E947410E7CFDF91CF91089580E090E0C6
:10220000892B29F00E94C30681110C9400000895C7
:10221000CF93DF93CDB7DEB7CC5AD1090FB6F89480
:10222000DEBF0FBECDBF789484B5826084BD84B517
:10223000816084BD85B5826085BD85B5816085BDC1
:1022400080916E00816080936E0010928100809179
:102250008100826080938100809181008160809301
:102260008100809180008160809380008091B10026
:1022700084608093B1008091B00081608093B00051
:1022800080917A00846080937A0080917A008260E5
:1022900080937A0080917A00816080937A008091A7
:1022A0007A00806880937A001092C10062E08AE030
:1022B0000E94930762E087E00E94930762E088E053
:1022C0000E94930762E089E00E94930762E085E044
:1022D0000E9493076AEF70E080E090E00E94E607BA
:1022E000109204041092030410920204109201044C
:1022F000109200041092FF038FE190E09093060487
:10230000809305049091F503963108F057C021E0C1
:1023100030E0309300042093FF032DE130E0309350
:102320000204209301042DE030E030930404209354
:10233000030420916800983050F031E09E3008F49A
:1023400030E081E001C0880F3A95EAF701C084E0EF
:10235000822B80936800983038F09E3040F09631A0
:1023600048F020E030E008C02DE630E005C02BE664
:1023700030E002C02CE630E03093FD032093FC03F4
:10238000983030F481E001C0880F9A95EAF70EC0CA
:10239000292F30E09E3018F42850310902C02E5009
:1023A000310981E001C0880F2A95EAF78093FE0386
:1023B00080910504909106040197F1F78091030440
:1023C00090910404892B21F1809170019091710109
:1023D00023E0893E9207E1F0009711F00E943E0948
:1023E000809107048E7F8093070410926F011092F2
:1023F0006E0189EE93E09093710180937001E091FA
:10240000FC03F091FD0390818091FE03892B808372
:1024100010927301109272011092DC021092FE026F
:102420001092DA0281E08093D9021092B40261E046
:1024300082E10E94630761E083E10E94630780916B
:10244000B9008E7F8093B9008091B9008D7F809311
:10245000B90088E48093B80085E48093BC0088E1EB
:102460008093B80021E047E06BE68091D6030E949C
:10247000480C6EE170E080E090E00E94E60720E00A
:1024800046E06BE68091D6030E94480C40E76DE67B
:102490008091D6030E94E70A86E00E94990E40E0F0
:1024A0006DE68091D6030E94E70A28EE33E047EDFF
:1024B00053E060E08091D6030E94900F8090D70394
:1024C00028EE33E047ED53E061E08091D6030E94AF
:1024D000900F9090D70328EE33E047ED53E062E091
:1024E0008091D6030E94900FA090D7034FE765E23A
:1024F0008091D6030E94E70A20E045E06AE68091D9
:10250000D6030E94480C48E665E28091D6030E94FB
:10251000E70A21E041E06AE68091D6030E94480C78
:1025200064E170E080E090E00E94E60701E020E0D6
:1025300040E069E877E085E891E00E949F0E8823FB
:1025400009F4CDC288E090E00E94861FB82E192FB2
:10255000E12CF12CF701EB53FF4F4491F701EA53C3
:10256000FF4F2491670153E0C50ED11CF701E953D9
:10257000FF4FE491EE23D1F1EE2EF12CE330D8F0B1
:10258000B7018B2D912FC455DF4F2883CC5AD040F3
:10259000C555DF4F4883CB5AD0400E94B320B82E98
:1025A000192FC555DF4F4881CB5AD040C455DF4F56
:1025B0002881CC5AD040AB2DB12F80E090E08E1511
:1025C0009F0548F4F601E80FF91FEB53FF4FE49124
:1025D000ED930196F4CF00E0B7018B2D912F0E946F
:1025E0009F0EEC0CFD1C811117C010C064E0E60EBC
:1025F000F11CF601EB53FF4FE491E13039F442E373
:1026000068E38091D6030E94E70A06C08B2D912FC4
:102610000E941B2082E064C270ECE716F10408F40B
:1026200099CF8B2D912F0E941B2003E023E042E0E5
:102630006BE68091D6030E94FD0B42E168E3809136
:10264000D6030E94E70A44E069E18091D6030E9424
:10265000E70A01E023E045E06AE18091D6030E94A9
:10266000FD0B03E023E042E06AE18091D6030E9483
:10267000FD0B22E044E06BE18091D6030E94FD0B4C
:1026800043E060E78091D6030E94E70A40E061E7FB
:102690008091D6030E94E70A20E040E060E080914C
:1026A000D6030E94480C082D26E046E060E08091A9
:1026B000D6030E94FD0B092D26E046E061E08091E3
:1026C000D6030E94FD0B0A2D26E046E062E08091D1
:1026D000D6030E94FD0BE12CF12CF701EA56FF4FC7
:1026E000E491A1E8B0E0AC0FBD1FAE0DB11DEC93BD
:1026F00081E08E0D9FEFE91AF90AA3E0AE1568F7A5
:10270000CD57DF4F6881C358D04070E09B012E5FEA
:102710003F4F90E02817390704F700E0CE57DF4F0E
:102720002881C258D040CF57DF4F4881C158D04090
:1027300081E890E08C0F9D1F03960E949F0E80E021
:10274000F701EA56FF4FE491A1E8B0E0AC0FBD1FDE
:10275000A80FB11DEC938F5FBFEFEB1AFB0A84301B
:1027600078F3CD57DF4F6881C358D04070E0AB019C
:102770004E5F5F4F282F30E0421753070CF700E001
:10278000CE57DF4F2881C258D040CF57DF4F488106
:10279000C158D04081E890E08C0F9D1F03960E94A5
:1027A0009F0E0E94920E0E94760F682FCE01019616
:1027B0000E94630F42E06FE18091D6030E94E70A16
:1027C0004CE961E28091D6030E94E70A40E560E2AD
:1027D0008091D6030E94E70A40E062E28091D6032E
:1027E0000E94E70A0E94920E21E046E06AE680918C
:1027F000D6030E94480C21E047E06AE68091D603A8
:102800000E94480C21E043E06AE68091D6030E94D2
:10281000480C80E0F701EA56FF4FE491A1E8B0E0F0
:10282000AC0FBD1FA80FB11DEC938F5FEFEFEE1A39
:10283000FE0A843078F3CD57DF4F6881C358D0400B
:1028400070E0AB014E5F5F4F282F30E04217530717
:102850000CF700E0CE57DF4F2881C258D040CF5749
:10286000DF4F4881C158D04081E890E08C0F9D1F18
:1028700003960E949F0E80E0F701EA56FF4FE49115
:10288000A1E8B0E0AC0FBD1FA80FB11DEC938F5FA6
:10289000FFEFEF1AFF0A843078F3CD57DF4F6881DE
:1028A000C358D04070E0AB014E5F5F4F282F30E03F
:1028B000421753070CF700E0CE57DF4F2881C2586C
:1028C000D040CF57DF4F4881C158D04081E890E0D9
:1028D0008C0F9D1F03960E949F0E80E0F701EA5621
:1028E000FF4FE491A1E8B0E0AC0FBD1FA80FB11DF0
:1028F000EC938F5F2FEFE21AF20A843078F3CD5712
:10290000DF4F6881C358D04070E0AB014E5F5F4F2E
:10291000282F30E0421753070CF700E0CE57DF4F67
:102920002881C258D040CF57DF4F4881C158D0408E
:1029300081E890E08C0F9D1F03960E949F0E0E94DD
:10294000760F83309105D8F3682FCE0101960E944F
:10295000630F80E0F701EA56FF4FE491A1E8B0E091
:10296000AC0FBD1FA80FB11DEC938F5F4FEFE41AA2
:10297000F40A843078F3CD57DF4F3880C358D04005
:10298000832C912CA4014E5F5F4F282F30E042171B
:10299000530704F7CE57DF4FB880C258D040CF5707
:1029A000DF4F2880C158D040422D4F716DE6809195
:1029B000D6030E94E70A8B2D0E94990EC12CD12CC0
:1029C000612C77247394F1E84F2E512C4C0E5D1E30
:1029D00053E0450E511CC814D90498F5C601409621
:1029E0008816990618F4A32CAC1802C070E1A72E23
:1029F0008A2D90E093012B1931092817390714F417
:102A0000AB2CA19492012C0D3D1D08EE13E04A2D34
:102A10006FE68091D6030E94F70ACA0CD11CBA0C4B
:102A2000C814D904C0F6B11001C02394422D4F71CF
:102A30006DE68091D6030E94E70A8B2D0E94990EC5
:102A4000CACF0E94760F83309105D8F3682FCE014C
:102A500001960E94630FF701EA56FF4F80E09491C0
:102A6000A1E8B0E0AC0FBD1FA80FB11D9C938F5F14
:102A7000843010F43196F3CFCD57DF4F6881C358BF
:102A8000D04070E0AB014E5F5F4F282F30E042171F
:102A9000530784F700E0CE57DF4F2881C258D0405B
:102AA000CF57DF4F4881C158D04081E890E08C0F6C
:102AB0009D1F03960E949F0E20E047E06AE68091EA
:102AC000D6030E94480C8AE290E09093D903809349
:102AD000D8030E94920E0E947D0E80E001C081E02A
:102AE000809381010E94B20F4091A8025091A902E7
:102AF00063E18091D6030E94BB0A4091AA025091E3
:102B0000AB0265E18091D6030E94BB0A4091AC0202
:102B10005091AD0267E18091D6030E94BB0A4091BB
:102B2000AE025091AF0266E08091D6030E94BB0ACC
:102B30004091B0025091B10268E08091D6030E94AA
:102B4000BB0A4091B2025091B3026AE08091D60371
:102B50000E94BB0A21E047E06AE68091D6030E940A
:102B6000480C8DEB96E090930101809300018091D9
:102B70006900836080936900E89A0E947D0E8093CB
:102B8000D20181E08093DB018091D8039091D90339
:102B90009093D4018093D30101E010E08091EA0189
:102BA0009091EB01019709F0A3C20E94B20F10921D
:102BB000E9011092E8018AE491E00E9435108CE46A
:102BC00091E00E9435108EE491E00E9435108CE473
:102BD00091E00E9435108EE491E00E9435108CE463
:102BE00091E00E9435108EE491E00E9435108CE453
:102BF00091E00E94351080E591E00E9435108CE450
:102C000091E00E94351080E591E00E9435108CE43F
:102C100091E00E94351080E591E00E9435108CE42F
:102C200091E00E94351080E591E00E9435108CE41F
:102C300091E00E94351080E591E00E9435108CE40F
:102C400091E00E94351080E591E00E9435108CE4FF
:102C500091E00E94351080E591E00E9435108CE4EF
:102C600091E00E9435106091EA017091EB01072E0E
:102C7000000C880B990B97FF03C00E940E1003C035
:102C80004AE00E94CB0F8CE491E00E94351062E58F
:102C900071E089EE93E00E94CD0664E571E089EE73
:102CA00093E00E94CD068091E8019091E901892B83
:102CB00031F40E94820C1093E9010093E8018091A5
:102CC000E8019091E901019709F08BC180917E01A3
:102CD00090917F0197FD079663E0959587956A959A
:102CE000E1F79195819591099093E1018093E0013D
:102CF00080917C0190917D0197FD079653E0959519
:102D000087955A95E1F79195819591099093DF0107
:102D10008093DE0120917A0130917B0180E090E484
:102D2000821B930B97FD079643E0959587954A95EF
:102D3000E1F79093DD018093DC018091780190911F
:102D4000790197FD0396959587959595879591952A
:102D5000819591099093E7018093E6018091760136
:102D60009091770197FD0396959587959595879511
:102D70009195819591099093E5018093E40180916B
:102D800074019091750197FD03969595879595959A
:102D900087959195819591099093E3018093E20144
:102DA000E12C80E4F82E4091E0015091E10166E0D1
:102DB0008091D6030E94BB0A4091DE015091DF0151
:102DC00068E08091D6030E94BB0A4091DC015091DB
:102DD000DD016AE08091D6030E94BB0A4091E601C2
:102DE0005091E70163E18091D6030E94BB0A4091B4
:102DF000E4015091E50165E18091D6030E94BB0A90
:102E00004091E2015091E30167E18091D6030E9475
:102E1000BB0A0E94820C67E571E08FEF92E00E948E
:102E2000CD0664E571E08FEF92E00E94CD068091BF
:102E30007E0190917F019C0197FF04C022273327D8
:102E4000281B390B29303105ACF097FD0796A3E01C
:102E500095958795AA95E1F72091E0013091E101E0
:102E6000B901681B790B7093E1016093E00120E0E8
:102E700030E002C021E030E080917C0190917D0142
:102E8000AC0197FF04C044275527481B590B493014
:102E900051051CF42F5F3F4F12C097FD0796F3E0DA
:102EA00095958795FA95E1F74091DE015091DF0104
:102EB000DA01A81BB90BB093DF01A093DE0180916A
:102EC0007A0190917B01F701E81BF90BCF01AF016B
:102ED000F7FF04C0442755274E1B5F0B49305105AF
:102EE0001CF42F5F3F4F11C097FD0796E3E09595C7
:102EF0008795EA95E1F74091DC015091DD01840F5F
:102F0000951F9093DD018093DC0180917801909171
:102F10007901AC0197FF04C044275527481B590B82
:102F2000423051051CF42F5F3F4F0FC097FD0196B3
:102F3000959587954091E6015091E701BA01681B8C
:102F4000790B7093E7016093E6018091760190918F
:102F50007701AC0197FF04C044275527481B590B44
:102F6000423051051CF42F5F3F4F0FC097FD019673
:102F7000959587954091E4015091E501DA01A81BF0
:102F8000B90BB093E501A093E40180917401909195
:102F90007501AC0197FF04C044275527481B590B06
:102FA0004230510574F42530310509F0FCCE809192
:102FB000E8019091E90101969093E9018093E8017D
:102FC00010C097FD0196959587952091E20130916B
:102FD000E301F901E81BF90BF093E301E093E2014F
:102FE000E2CE8091E8019091E901029709F0ADC12C
:102FF0000E94820C8091E6019091E7019093A902D2
:103000008093A8028091E4019091E5019093AB0236
:103010008093AA028091E2019091E3019093AD0226
:103020008093AC028091E0019091E1019093AF0216
:103030008093AE028091DE019091DF019093B10206
:103040008093B0028091DC019091DD019093B302F6
:103050008093B20248EAC42E42E0D42EE12CF12C37
:10306000D6016D916D01C7010E949B22BFEFEB1A43
:10307000FB0AECE0EE16F10499F74091A80250919A
:10308000A90263E18091D6030E94BB0A4091AA0283
:103090005091AB0265E18091D6030E94BB0A40913A
:1030A000AC025091AD0267E18091D6030E94BB0A49
:1030B0004091AE025091AF0266E08091D6030E942B
:1030C000BB0A4091B0025091B10268E08091D603F2
:1030D0000E94BB0A4091B2025091B3026AE0809113
:1030E000D6030E94BB0A1092EB011092EA012DC197
:1030F0008091DB01882309F428C18091800181112E
:1031000010C12091D5013091D6018091D3019091C9
:10311000D4012817390708F004C189EE93E00E9412
:10312000C705181619060CF06CC00E943A10FC0175
:1031300097FD11C08D32910591F0C0970A9778F0F4
:10314000E091E903F091EA030680F781E02D89EE32
:1031500093E00995EACF80E090E0DC014DC020E0EB
:1031600030E0A901F12CE130F10509F075C3E091DF
:10317000E903F091EA030680F781E02D89EE93E000
:10318000C455DF4F2883CC5AD040C755DF4F388312
:10319000C95AD040C555DF4F4883CB5AD040C65599
:1031A000DF4F5883CA5AD04009950E943A10FC015B
:1031B000C097C455DF4F2881CC5AD040C755DF4F48
:1031C0003881C95AD040C555DF4F4881CB5AD040CD
:1031D000C655DF4F5881CA5AD0400A9720F2E130D5
:1031E000F10509F2FF2009F457C388279927DC016C
:1031F000821B930BA40BB50B9093EB018093EA0118
:103200008CCF8EE00E94CF07092E000CAA0BBB0BBF
:103210009C01AD01285C310941095109A8ECB0E0DD
:103220000E94C8222CEB32E040E050E00E94A9222C
:1032300069017A018FE00E94CF07092E000CAA0BCA
:10324000BB0B9C01AD01285C310941095109A8EC77
:10325000B0E00E94C8222CEB32E040E050E00E9437
:10326000A922F7FC07C0C601893C91052CF088EC27
:1032700090E002C080E090E09093DA018093D90161
:1032800057FD07C0C901293C31052CF088EC90E0BE
:1032900002C080E090E09093D8018093D7018AE04B
:1032A0000E943A0721E030E0892B11F020E030E065
:1032B00030930D0120930C0187E00E943A0721E032
:1032C00030E0892B11F020E030E030930B012093A7
:1032D0000A0188E00E943A0721E030E0892B11F0D2
:1032E00020E030E0309309012093080189E00E943A
:1032F0003A0721E030E0892B11F020E030E03093F4
:1033000007012093060185E00E943A0721E030E0A2
:10331000892B11F020E030E0309305012093040167
:10332000ECCE109280010E947D0EF82E8093D20187
:103330000E94760F9093D6018093D501F4FC03C0D0
:103340008115944029F40E94920E0E94FE1026CC12
:10335000F1FEFBCFE090D501F090D601C090D301F3
:10336000D090D401EC14FD0438F40E94760F9093B1
:10337000D6018093D501EECF6C2D82E991E00E94B9
:10338000630FEC18FD08F092D601E092D501609031
:103390009601712C762C662480919701682A809082
:1033A0009A01912C982C882480919B01882AA090C6
:1033B0009E01B12CBA2CAA2480919F01A82A609169
:1033C000920170E0762F662780919301682B072E7B
:1033D000000C880B990B0E949A2120E030E040E815
:1033E00058E30E94D5216B017C016093C603709362
:1033F000C7038093C8039093C903B301770C880B6C
:10340000990B0E949A2120E030E040E858E30E94A6
:10341000D5212B013C016093CA037093CB038093A9
:10342000CC039093CD03B401990C880B990B0E94A7
:103430009A2120E030E040E858E30E94D521CF56A1
:10344000DF4F688379838A839B83C159D04060931F
:10345000CE037093CF038093D0039093D103B50133
:10346000BB0C880B990B0E949A2120E030E040E8C9
:1034700058E30E94D521CB56DF4F688379838A8336
:103480009B83C559D0406093D2037093D30380933C
:10349000D4039093D5039B01AC01C301B2010E94F8
:1034A000D5214B015C01CF56DF4F288139814A81FC
:1034B0005B81C159D040C701B6010E94D5219B0153
:1034C000AC01C501B4010E94A71D9B01AC010E9483
:1034D000A81DC756DF4F688379838A839B83C959A8
:1034E000D0406093A8037093A9038093AA0390939C
:1034F000AB03A3019201C701B6010E94D5214B0184
:103500005C01CB56DF4F288139814A815B81C559E7
:10351000D040CF56DF4F688179818A819B81C15924
:10352000D0400E94D5219B01AC01C501B4010E948D
:10353000A81D9B01AC010E94A81DC356DF4F6883E4
:1035400079838A839B83CD59D0406093AC03709379
:10355000AD038093AE039093AF03A7019601C7011B
:10356000B6010E94D5214B015C01A3019201C30168
:10357000B2010E94D5219B01AC01C501B4010E949A
:10358000A71D4B015C01CF56DF4F288139814A814D
:103590005B81C159D040CA01B9010E94D5219B016C
:1035A000AC01C501B4010E94A71D4B015C01CB56C3
:1035B000DF4F288139814A815B81C559D040CA01DA
:1035C000B9010E94D5219B01AC01C501B4010E9443
:1035D000A81D4B015C016093B0037093B10380930D
:1035E000B2039093B303A7019601C701B6010E94ED
:1035F000A81DCF55DF4F688379838A839B83C15A87
:10360000D040A3019201C301B2010E94A81DCB5575
:10361000DF4F688379838A839B83C55AD040A70193
:103620009601CF55DF4F688179818A819B81C15A8C
:10363000D0400E94D5216B017C01A3019201CB55A2
:10364000DF4F688179818A819B81C55AD0400E9471
:10365000D5219B01AC01C701B6010E94A81D20E045
:1036600030E040E85FE30E94A71D6B017C01CF566C
:10367000DF4F288139814A815B81C159D040CB55C8
:10368000DF4F688179818A819B81C55AD0400E9431
:10369000D5212B013C01CB56DF4F288139814A814E
:1036A0005B81C559D040CF55DF4F688179818A81D0
:1036B0009B81C15AD0400E94D5219B01AC01C3011E
:1036C000B2010E94A71DA70196010E94271E6093C8
:1036D0008601709387018093880190938901A501E9
:1036E0009401C501B4010E94D5216B017C01C35630
:1036F000DF4F288139814A815B81CD59D040CA0191
:10370000B9010E94D521A70196010E94A81D0E941F
:103710002D1F9B01AC01C756DF4F688179818A81DB
:103720009B81C959D0400E94861E0E94571E6093FB
:103730008A0170938B0180938C0190938D01C75601
:10374000DF4F288139814A815B81C959D040CA0144
:10375000B9010E94D521A70196010E94A81D0E94CF
:103760002D1F9B01AC01C356DF4F688179818A818F
:103770009B81CD59D0400E94861E0E94571E6093A7
:103780008E0170938F0180939001909391018AE450
:1037900091E00E9435108CE491E00E94351020E009
:1037A00030E044E353E46091860170918701809199
:1037B0008801909189010E94D5212BED3FE049E4D9
:1037C00050E40E94861E20E030E044E353E40E946F
:1037D000A81D20E030E044EB53EC0E94D52120E00E
:1037E00030E044EB53E40E94861E20E030E044EBDE
:1037F00053E40E94A81D609382017093830180931B
:103800008401909385018EE00E94CF07BC01990F3F
:10381000880B990B97FF03C00E940E1003C04AE06B
:103820000E94CB0F86E691E00E9435108FE00E9447
:10383000CF07BC01990F880B990B97FF03C00E941B
:103840000E1003C04AE00E94CB0F64E571E089EEE0
:1038500093E00E94CD0679CDED32F105D1F0CF0194
:10386000C0970A9708F083CCAAE0B0E00E94C82273
:103870004F01FF0FAA08BB08DC01CB01880D991D81
:10388000AA1DBB1D9C01AD012053310941095109FD
:103890006ECCFF24F3946BCCDA01C901ADCC8EE37E
:1038A00091E09093EA038093E90389EE93E00C940E
:1038B0003E09109202031092010388EE93E0A0E00B
:1038C000B0E08093030390930403A0930503B093A7
:1038D00006032EE131E0309300032093FF0225EC34
:1038E00030E030930C0320930B0324EC30E0309352
:1038F0000E0320930D0320EC30E03093100320934F
:103900000F0321EC30E0309312032093110322ECDB
:1039100030E0309314032093130326EC30E030930F
:103920001603209315031092180310921903109296
:103930001A0310921B0310929F0310929E03809310
:10394000A0039093A103A093A203B093A3032EE23C
:1039500031E030939D0320939C031092EC0310926E
:10396000EB038093ED039093EE03A093EF03B093EA
:10397000F0038EE391E09093EA038093E9031092C1
:1039800000041092FF03109202041092010410929E
:10399000040410920304109206041092050460912E
:1039A00007046E7F6D7F609307046695617081E008
:1039B000682784E00E94630761E084E00E94930727
:1039C000E8E5F9E0E491E093F903E4E4F9E0E49157
:1039D000F0E0EE0FFF1FE45DF64F85919491909318
:1039E000FB038093FA0360E083E00E9493078091D9
:1039F000070481FD04C061E083E00E94630783E067
:103A00008093F503E7E5F9E0E491E093F603E3E45E
:103A1000F9E0E491F0E0EE0FFF1FEA5CF64F8591CC
:103A200094919093F8038093F70388E68093D603EC
:103A300080E090E0A0E8BFE38093C6039093C703C3
:103A4000A093C803B093C9031092CA031092CB038A
:103A50001092CC031092CD031092CE031092CF039C
:103A60001092D0031092D1031092D2031092D3037C
:103A70001092D4031092D5031092C1031092C00388
:103A80001092C3031092C2031092C5031092C40394
:103A90001092BB031092BA031092BD031092BC03A4
:103AA0001092BF031092BE031092B5031092B4039C
:103AB0001092B7031092B6031092B9031092B80394
:103AC0001092A8031092A9031092AA031092AB03BC
:103AD0001092AC031092AD031092AE031092AF039C
:103AE0001092B0031092B1031092B2031092B3037C
:103AF000089597FB072E16F4009407D077FD09D0A0
:103B00000E948D1D07FC05D03EF4909581959F4F36
:103B10000895709561957F4F0895AA1BBB1B51E1D5
:103B200007C0AA1FBB1FA617B70710F0A61BB70B2D
:103B3000881F991F5A95A9F780959095BC01CD01D2
:103B40000895EE0FFF1F0590F491E02D0994505851
:103B5000BB27AA270E94BF1D0C9459220E944B220A
:103B600038F00E94522220F039F49F3F19F426F4D5
:103B70000C9448220EF4E095E7FB0C944222E92FC6
:103B80000E946A2258F3BA176207730784079507E1
:103B900020F079F4A6F50C948C220EF4E0950B2E0F
:103BA000BA2FA02D0B01B90190010C01CA01A0018F
:103BB0001124FF27591B99F0593F50F4503E68F1EA
:103BC0001A16F040A22F232F342F4427585FF3CF2B
:103BD000469537952795A795F0405395C9F77EF4FC
:103BE0001F16BA0B620B730B840BBAF09150A1F045
:103BF000FF0FBB1F661F771F881FC2F70EC0BA0FCB
:103C0000621F731F841F48F4879577956795B79552
:103C1000F7959E3F08F0B0CF9395880F08F099274D
:103C2000EE0F9795879508950E944B2260F080E8EB
:103C300091E009F49EEF0E94522228F040E851E002
:103C400071F45EEF0CC00C9448220C948C22E92F86
:103C5000E0780E946A2240F3092E052AB1F3261764
:103C600037074807590738F00E2E07F8E02569F0A6
:103C7000E025E0640AC0EF6307F8009407FADB016F
:103C8000B9019D01DC01CA01AD01EF930E949D1EA7
:103C90000E9459220E94571E5F91552339F02BED47
:103CA0003FE049E450FD49EC0C94A81D0895DF93D2
:103CB000DD27B92FBF7740E85FE3161617064807E0
:103CC0005B0718F4D92F0E941F1F9F938F937F9338
:103CD0006F930E946D1FE8E6F0E00E94F81E0E94BC
:103CE00059222F913F914F915F910E94E821DD234E
:103CF00051F09058A2EA2AED3FE049EC5FE3D0781A
:103D00005D270E94BF1DDF910C9459220E949A1ECC
:103D10000C9459220E94522258F00E944B2240F0EB
:103D200029F45F3F29F00C94422251110C948D220A
:103D30000C9448220E946A2268F39923B1F3552318
:103D400091F3951B550BBB27AA27621773078407AE
:103D500038F09F5F5F4F220F331F441FAA1FA9F344
:103D600035D00E2E3AF0E0E832D091505040E69532
:103D7000001CCAF72BD0FE2F29D0660F771F881F93
:103D8000BB1F261737074807AB07B0E809F0BB0B86
:103D9000802DBF01FF2793585F4F3AF09E3F51059A
:103DA00078F00C9442220C948D225F3FE4F3983E0D
:103DB000D4F3869577956795B795F7959F5FC9F783
:103DC000880F911D9695879597F90895E1E0660F04
:103DD000771F881FBB1F621773078407BA0720F07D
:103DE000621B730B840BBA0BEE1F88F7E0950895E6
:103DF000DF93CF931F930F93FF92EF92DF927B019C
:103E00008C01689406C0DA2EEF010E94E821FE01C1
:103E1000E894A5912591359145915591A6F3EF012F
:103E20000E94BF1DFE019701A801DA9469F7DF9097
:103E3000EF90FF900F911F91CF91DF9108959B011B
:103E4000AC0160E070E080E89FE30C94861E19F4FA
:103E500016F40C9448220C94711F0E947222B8F33D
:103E60009923C9F3B6F39F57550B87FF0E947F1F15
:103E70000024A0E640EA900180585695979528F4D2
:103E8000805C660F771F881F20F0261737074807CA
:103E900030F4621B730B840B202931294A2BA69521
:103EA00017940794202531254A2758F7660F771F66
:103EB000881F20F026173707480730F4620B730B72
:103EC000840B200D311D411DA09581F7B901842F70
:103ED0009158880F9695879508959B01AC010C9495
:103EE000D5219F3F31F0915020F4879577956795C4
:103EF000B795880F911D9695879597F908959150DC
:103F00005040660F771F881FD2F70895CF93DF9335
:103F10008230910510F482E090E0E0910A04F09183
:103F20000B0420E030E0C0E0D0E0309711F1408198
:103F3000518148175907C0F04817590761F4828129
:103F40009381209719F09B838A832BC090930B0455
:103F500080930A0426C02115310519F04217530732
:103F600018F49A01BE01DF01EF010280F381E02D18
:103F7000DCCF2115310509F1281B390B243031051F
:103F800090F412968D919C9113976115710521F013
:103F9000FB019383828304C090930B0480930A04F3
:103FA000FD01329644C0FD01E20FF31F819391930E
:103FB000225031092D933C933AC02091080430914E
:103FC0000904232B41F42091100130911101309309
:103FD00009042093080420910E0130910F0121154E
:103FE000310541F42DB73EB74091120150911301B4
:103FF000241B350BE0910804F0910904E217F30744
:10400000A0F42E1B3F0B2817390778F0AC014E5F48
:104010005F4F2417350748F04E0F5F1F5093090478
:10402000409308048193919302C0E0E0F0E0CF0157
:10403000DF91CF9108950F931F93CF93DF93009754
:1040400009F48CC0FC0132971382128200910A0499
:1040500010910B040115110581F420813181820F2B
:10406000931F20910804309109042817390779F526
:10407000F0930904E093080471C0D80140E050E0D7
:10408000AE17BF0750F412962D913C911397AD01D6
:104090002115310509F1D901F3CF9D01DA013383EF
:1040A000228360817181860F971F8217930769F4BD
:1040B000EC0128813981260F371F2E5F3F4F318356
:1040C00020838A819B8193838283452B29F4F093FB
:1040D0000B04E0930A0442C01396FC93EE931297EC
:1040E000ED01499159919E01240F351FE217F30705
:1040F00071F480819181840F951F029611969C9393
:104100008E938281938113969C938E931297E0E015
:10411000F0E0D80112968D919C911397009719F0B9
:10412000F8018C01F6CF8D919C9198012E5F3F4F45
:10413000820F931F20910804309109042817390732
:1041400069F4309729F410920B0410920A0402C00B
:10415000138212821093090400930804DF91CF9117
:104160001F910F910895A0E0B0E0E9EBF0E20C940C
:10417000D722EC01009721F4CB010E94861FB8C022
:10418000FC01E60FF71F9C0122503109E217F307EB
:1041900008F4ACC0D9010D911C91119706171707AF
:1041A000B0F00530110508F49FC0C80104978617C8
:1041B000970708F499C002501109061B170B0193C9
:1041C00011936D937C93CF010E941B208DC05B01E6
:1041D000A01AB10A4C01800E911EA0910A04B09160
:1041E0000B0440E050E0E12CF12C109709F44AC098
:1041F000A815B905D1F56D907C901197630182E007
:10420000C80ED11CCA14DB0480F1A3014A195B0952
:104210006A0182E0C80ED11C1296BC9012971396C8
:10422000AC91B5E0CB16D10440F0B282A3835183A8
:104230004083D9016D937C930AC00E5F1F4FC30169
:10424000800F911FF90191838083EB2DFA2FE114E8
:10425000F10431F0D7011396FC93EE93129744C00A
:10426000F0930B04E0930A043FC08D919C91119749
:104270004817590708F4AC017D0112960D90BC91C6
:10428000A02DB3CF80910804909109048815990559
:10429000E1F446175707C8F480910E0190910F0181
:1042A000009741F48DB79EB74091120150911301D0
:1042B000841B950BE817F907C8F4F0930904E09301
:1042C0000804F901718360830FC0CB010E94861F2F
:1042D0007C01009759F0A801BE010E948F21CE01F8
:1042E0000E941B20C70104C0CE0102C080E090E004
:1042F000CDB7DEB7EEE00C94F32281E090E0F894C5
:104300000C943B23FB01DC0104C08D9101908019CA
:1043100021F441505040C8F7881B990B0895FB01C8
:10432000DC0102C001900D9241505040D8F7089531
:10433000E89409C097FB3EF490958095709561953F
:104340007F4F8F4F9F4F9923A9F0F92F96E9BB27F5
:104350009395F695879577956795B795F111F8CF71
:10436000FAF4BB0F11F460FF1BC06F5F7F4F8F4FDC
:104370009F4F16C0882311F096E911C0772321F0D2
:104380009EE8872F762F05C0662371F096E8862F6A
:1043900070E060E02AF09A95660F771F881FDAF7C1
:1043A000880F9695879597F908950E94E8210C94B7
:1043B00059220E944B2238F00E94522220F095236D
:1043C00011F00C9442220C94482211240C948D225A
:1043D0000E946A2270F3959FC1F3950F50E0551F1C
:1043E000629FF001729FBB27F00DB11D639FAA274A
:1043F000F00DB11DAA1F649F6627B00DA11D661F99
:10440000829F2227B00DA11D621F739FB00DA11DB9
:10441000621F839FA00D611D221F749F3327A00D73
:10442000611D231F849F600D211D822F762F6A2F0F
:1044300011249F5750409AF0F1F088234AF0EE0F74
:10444000FF1FBB1F661F771F881F91505040A9F7A1
:104450009E3F510580F00C9442220C948D225F3FC8
:10446000E4F3983ED4F3869577956795B795F795DD
:10447000E7959F5FC1F7FE2B880F911D9695879555
:1044800097F9089597F99F6780E870E060E00895D4
:104490009FEF80EC089500240A941616170618065C
:1044A0000906089500240A94121613061406050638
:1044B0000895092E0394000C11F4882352F0BB0FC9
:1044C00040F4BF2B11F460FF04C06F5F7F4F8F4F2C
:1044D0009F4F089557FD9058440F551F59F05F3F67
:1044E00071F04795880F97FB991F61F09F3F79F016
:1044F00087950895121613061406551FF2CF469598
:10450000F1DF08C0161617061806991FF1CF869519
:104510007105610508940895E894BB2766277727FD
:10452000CB0197F90895F999FECF92BD81BDF89A14
:10453000992780B50895262FF999FECF1FBA92BD0D
:1045400081BD20BD0FB6F894FA9AF99A0FBE019674
:104550000895052E97FB1EF400940E94C02257FD7B
:1045600007D00E940A2307FC03D04EF40C94C0220B
:1045700050954095309521953F4F4F4F5F4F08958F
:1045800090958095709561957F4F8F4F9F4F0895BF
:104590000E942C23A59F900DB49F900DA49F800D89
:1045A000911D112408952F923F924F925F926F9226
:1045B0007F928F929F92AF92BF92CF92DF92EF92B3
:1045C000FF920F931F93CF93DF93CDB7DEB7CA1B34
:1045D000DB0B0FB6F894DEBF0FBECDBF09942A885F
:1045E000398848885F846E847D848C849B84AA8407
:1045F000B984C884DF80EE80FD800C811B81AA8194
:10460000B981CE0FD11D0FB6F894DEBF0FBECDBF5E
:10461000ED010895A1E21A2EAA1BBB1BFD010DC0DE
:10462000AA1FBB1FEE1FFF1FA217B307E407F50762
:1046300020F0A21BB30BE40BF50B661F771F881F3E
:10464000991F1A9469F760957095809590959B01D4
:10465000AC01BD01CF010895A29FB001B39FC0017D
:10466000A39F700D811D1124911DB29F700D811D9E
:104670001124911D089514E0C5EBD4E004C0FE019F
:104680000E94A11D2196C63BD107C9F7F894FFCF20
:104690005905590501000100010001000100000059
:1046A0000C04800001000000E803000000009510E9
:1046B000E004140EF20D060EDC10000000008E0661
:1046C0005E065606420633063206000000007305F9
:1046D000E004C705DF055A0572053C002C003030A8
:1046E00030003E000D0A0043616C696272617469BA
:0E46F0006E672E2E2E002020202C2020200071
:00000001FF
